:020000041000EA
:1000000000B5324B212058609868022188439860DF
:10001000D860186158612E4B002199600221596106
:100020000121F02299502B49196001219960352056
:1000300000F044F80222904214D00621196600F024
:1000400034F8196E01211966002018661A6600F04E
:100050002CF8196E196E196E052000F02FF8012189
:100060000842F9D1002199601B49196000215960AB
:100070001A491B48016001219960EB211966A021F2
:10008000196600F012F800219960164914480160C1
:100090000121996001BC002800D000471248134993
:1000A000086003C880F30888084703B5996A0420EC
:1000B0000142FBD001200142F8D103BD02B5186610
:1000C0001866FFF7F2FF186E186E02BD00000240BE
:1000D000000000180000070000035F00212200005C
:1000E000F4000018222000A00001001008ED00E03C
:1000F00000000000000000000000000074B24E7A12
:1001000000200420F7010010C3010010C5010010F9
:10011000C1010010C1010010C1010010C101001097
:10012000C1010010C1010010C1010010C701001081
:10013000C1010010C1010010C9010010CB01001065
:10014000CD010010CD010010CD010010CD01001037
:10015000CD010010CD010010CD010010CD01001027
:10016000CD010010CD010010CD010010CD01001017
:10017000CD010010CD010010CD010010CD01001007
:10018000CD010010CD010010CD010010CD010010F7
:10019000CD010010CD010010CD010010CD010010E7
:1001A000CD010010CD010010CD010010CD010010D7
:1001B000CD010010CD010010CD010010CD010010C7
:1001C00000BE00BE00BE00BE00BE00BEEFF3058054
:1001D000103800BEF2EB8871D46302100064021084
:1001E0003402001090A31AE700201F49086006C8D7
:1001F00081F3088810471D48006800282FD10DA4FE
:100200000ECC002902D000F012F8F9E71849194A7B
:10021000002000E001C19142FCD1174988471749ED
:1002200088471749884700BEFDE701C901C29A42C5
:10023000FBD3704700640210C00000203828002063
:10024000788B02100000042000000420788B02103C
:10025000001004200010042000000000704709482E
:1002600010F00CFD0047000008ED00E0000000D099
:100270003828002000400020B1F20010093D001095
:10028000E1F300105756000006005250ABB3605324
:10029000703D021006005250861C0302803D021081
:1002A000060052505422A29D843D02100500525077
:1002B000DE65F468788B0210F8B5C0460648074939
:1002C000091A8B10C90FC91810B5491003D0044B77
:1002D000002B00D0984710BD382800203828002077
:1002E00000000000054B10B5002B03D00449054861
:1002F00000E000BFFFF7E2FF10BDC04600000000B5
:10030000843F00209815021010B5041E10D000295B
:100310000ED001310818012108F0D4FD031E07D0CA
:10032000621C121860421040821EC31A138000E043
:10033000002010BD10B5831E1B88C01A08F0C6FD32
:1003400010BDC04610B5040018680B68126821681B
:100350009B009200C91812F003FB002010BDC0469C
:10036000F0B5DE4657464E464546E0B593688DB03B
:1003700004000691D0686D4905931EF0E1FF431E0D
:1003800098410021226943000133019202910391B7
:10039000002A00D184E007938022019BD2009B4673
:1003A000934200D993465846059B0121584380004B
:1003B00008F088FD8246002800D1B2E0029B0B9035
:1003C00009935B460A93A368002B00D1ABE00BAB0B
:1003D0002000E5680AAA09A9A847019B002B4DD077
:1003E000069B1E68079B032B62D0B046039B00252B
:1003F0009B0098440023FF2699460494534658597D
:1004000012F0B8F90400000A304012F05AF94849D5
:1004100012F0F1F8474912F002F9071C200C3040A5
:1004200012F04FF9424912F0E6F8434912F0F7F89A
:10043000011C381C12F0DCF8071C2000304012F0C0
:1004400040F93B4912F0D7F83C4912F0E8F8011C9A
:10045000381C12F0CDF84346585101239C46E14424
:100460000435CB45CAD8039A01990023049C013274
:10047000002901D05B46013B9B1803935A46019B20
:1004800050469B1A019308F021FD8022D200944629
:10049000029B63441A0002932369934200D97BE7CD
:1004A00000200DB0F0BCBB46B246A946A046F0BD48
:1004B000039BA1469B00F618FF23002798465C4645
:1004C0005246BB00D05812F055F943460500000CC7
:1004D000184012F0F6F8164912F08DF843463060D5
:1004E000280A184012F0EDF8114912F084F87060F3
:1004F0004046284012F0E5F80D4912F07CF801372B
:10050000B0600C36BC42DBD8039A0199A3460023A5
:100510004C4603320029AFD05B465B005B44033B93
:10052000AAE70748BDE715F0CBF9C046A0150210B1
:1005300000007F43A245163F8716993ED578E93DD6
:1005400016FCFFFFF0B5DE4657464E464546E0B581
:100550001B68056887B00193AB680F009B46EB688A
:10056000594638689C69160010F0E2FB6043594612
:100570000700306810F0DCFB4443A2460023BA4475
:1005800099465A46574534D2002A32D04B469C00F1
:10059000019B00269C4601236444984605E0AA6816
:1005A000731C043493421AD21E006B6828689B5D4A
:1005B0000394DB190593434604938368002B1AD0F8
:1005C000C36804AA9B4605A903ABD8470028E6D018
:1005D00007B0F0BCBB46B246A946A046F0BDEB68EA
:1005E0009B69FF18574504D24B46B14601339944E5
:1005F000CAE70020ECE715F063F9C046F0B55746AE
:100600004E46DE464546E0B507009BB0101C1993E8
:100610001A007B680E1C002B00D164E15310099373
:1006200012F0AEF8B44AB54B10F0F9FD0400301CDE
:100630000D0012F0A5F80B0002002900200010F0B8
:10064000D0FD10F03FFF10F0EFFE041C12F098F800
:1006500016901791211C201C11F0E1FF099B1090AE
:100660009B000893002312971193129B099D1A680F
:100670009C68119B0421634328001592189308F08D
:1006800021FC04210190280008F01CFC04210290A8
:10069000280008F017FC04210390280008F012FC41
:1006A00004218346280008F00DFC04218046280020
:1006B00008F008FC8246002D00D1FAE0199810F0ED
:1006C00027FE02000B0010F083FD0A900B91169894
:1006D000179902000B0010F07BFD0C900D91FE208D
:1006E000109D8005291C11F080FF12F049F80B00C5
:1006F000020010F06DFD002700260E900F91281CBF
:1007000012F03EF85B46B146C346B84606900791E4
:1007100013941493484610F0FBFD02000B0010F0F8
:1007200057FD0022764B10F053FD734A734B10F0C7
:1007300076FD0A9A0B9B10F054FD10F0ADFE10F000
:1007400073FE12F01DF80C9A0D9B10F068FD069ACE
:10075000079B06000F0010F03BFD0022684B10F0D5
:1007600037FD10F061FE041C011C109811F043FFCE
:100770004246019B9850201C12F002F802000B0028
:1007800004000D000E980F9910F02BFD10F04CFE98
:100790004246029B98503200069807993B0010F0A1
:1007A0000EFD0022564B10F013FD802212069446D7
:1007B0000B006344059304902200049805992B00D4
:1007C00010F00FFD10F030FE4246039B98500123BD
:1007D0009C460333E1449C46099BE0444B4599D138
:1007E000149B139CD8469B46002C62D01599189AEE
:1007F000894693009944A3189B00CE1806960024BE
:1008000043461959029B185911F009FF53461959CB
:10081000039B051C185911F002FF011C281C11F044
:10082000E7FE4B46196811F0E3FE5B46185143465C
:10083000051C185911F0A4FF02000B0010F0C8FCB1
:100840000600281C0F0011F09BFF02000B00300077
:10085000390010F0BDFC5346060018590F0011F086
:100860008FFF02000B003000390010F0B1FC019B3B
:10087000060018590F0011F083FF02000B00300032
:10088000390010F0CCFC10F0CFFD4B461860434609
:1008900052461B5913515B4642461B591351089B44
:1008A0000434A342ACD104239C46069BE144994501
:1008B000A5D1019808F00AFB029808F007FB0398FD
:1008C00008F004FB584608F001FB404608F0FEFA29
:1008D000504608F0FBFA129B119A5B6801321192A4
:1008E000934200D9C1E600201BB0F0BCBB46B24623
:1008F000A946A046F0BDC046182D4454FB2109402E
:100900000000F03FF0B557464E46DE464546E0B59E
:1009100007009BB0101C19931A007B680E1C002B5B
:1009200000D16EE153100E9311F02AFFB94ABA4B71
:1009300010F075FC0400301C0D0011F021FF0B00BD
:1009400002002900200010F04CFC10F0BBFD10F05C
:100950006BFD041C11F014FF16901791211C201C34
:1009600011F05DFE0E9B3C009B000393002318904A
:100970000F932368A56814930F9B0E9E6B4304216D
:100980003000159308F09EFA04210190300008F021
:1009900099FA04210290300008F094FA0421834669
:1009A000300008F08FFA04218246300008F08AFAFD
:1009B00004210700300008F085FA8046002E00D19F
:1009C00005E1199810F0A4FC02000B0010F000FCE7
:1009D000089009911698179902000B0010F0F8FB87
:1009E0000A900B91FE20189E8005311C11F0FDFD30
:1009F00011F0C6FE02000B0010F0EAFB0C900D9106
:100A0000301C11F0BDFE5246002311924246994619
:100A10009846A24606900791109512971392404669
:100A200010F076FC02000B0010F0D2FB00227B4B92
:100A300010F0CEFB774A784B10F0F1FB089A099B37
:100A400010F0CFFB10F028FD10F0EEFC11F098FE36
:100A50000A9A0B9B10F0E3FB069A079B06000F0017
:100A600010F0B6FB00226D4B10F0B2FB10F0DCFC76
:100A7000041C011CFE20800511F0BDFD4A46019BAF
:100A80009850201C11F07CFE02000B0004000D00A9
:100A90000C980D9910F0A5FB10F0C6FC4A46029B7D
:100AA00098503200069807993B0010F088FB00220E
:100AB0005A4B10F08DFB8022120694460B006344C3
:100AC000059304902200049805992B0010F089FBEF
:100AD00010F0AAFC5B464A46985001239C4603331B
:100AE000E0449C460E9BE144434598D1139B109DE6
:100AF0009846119B5446129F9A46002D67D0159A2E
:100B00001499944665448C46AD0065448946069523
:100B1000089445465446930099440026A246A846A8
:100B2000029BB959985911F07AFD434699595B4691
:100B3000041C985911F073FD011C201C11F058FD84
:100B40004B46196811F054FD5346985111F018FEA8
:100B50000400B8590D0011F013FE02000B0010F054
:100B600037FB02000B002000290010F028FB434651
:100B7000040098590D0011F003FE02000B00200044
:100B8000290010F025FB019B040098590D0011F07D
:100B9000F7FD02000B002000290010F040FB10F0D0
:100BA00043FC4B4642461860BB59935153469B59F0
:100BB000BB51039B0436B342B2D104239C46069B2F
:100BC000E144544645469945A7D19046089C019872
:100BD00008F07CF9029808F079F9584608F076F99F
:100BE000504608F073F9380008F070F9404608F0F4
:100BF0006DF90F9B01331A000F936368934200D97C
:100C0000B7E600201BB0F0BCBB46B246A946A046E2
:100C1000F0BDC046182D4454FB2109400000F03FB0
:100C2000012A07D0022A09D0032A01D0002A03D0C2
:100C3000002070470160FBE70260F9E70B68036082
:100C4000F6E7C046012A07D0022A09D0032A01D0BC
:100C5000002A03D0002070470160FBE70260F9E73B
:100C60000B680360F6E7C046F0B5C646884600B597
:100C70001F0005690400160009F05CFD434618607A
:100C8000596018486B689847002822D1310000202D
:100C90002B699847002819D13900A07A6B699847C9
:100CA000002813D10923E356012B03D0002080BC78
:100CB000B846F0BD207B6B6907999847002805D19D
:100CC000E07A6B69069998470028EFD003204042EC
:100CD000EDE7054B0100180008F0CCF80620404273
:100CE000E5E7C04609030010AC15021082B0F0B56C
:100CF00045464E46DE465746E0B585B00F93531E37
:100D00008846D90FC9180F9B03920093109B0500CA
:100D1000994601231A404910019288456DDA4B46E5
:100D200044468B4681460293671C7D006B1EDE00A5
:100D30003F014F444E44796870689A4611F0A6FC12
:100D4000E4004C44002807D0330006CB06C4D3454A
:100D50004DDD55462C00E7E73B0006CB06C4AB450E
:100D6000F8DC029BBB462F004D469946019B002BA9
:100D70000FD103980238C10F09184910B94208D1A0
:100D80007F000137F90069185A4608008B4648C8A9
:100D900048C2791ECE0F7618761047450BDC15E059
:100DA0002300721E03CB03C7D30F9B1837005B10C1
:100DB000B0451ADA1E00F4002C19FF00494660689D
:100DC000EF1911F079FC0028EAD1BB465B46009A86
:100DD0001A604A465A6005B0F0BCBB46B246A94606
:100DE000A046F0BC08BC02B01847A346EEE7029B41
:100DF0004D4657469946B346B8E74346DB009B4607
:100E0000019B8344002BE1D14746B2E7F8B5DE46AB
:100E100057464E4645468B46E0B5070088423FD0D0
:100E200008239846804488453AD0060011E0B8452A
:100E300006D0434638003900DA1B08301EF080F92E
:100E400053463B6008239C46E0447D600836D84505
:100E500026D0F568B3687968281C34009A4611F0EA
:100E60002BFC0028E3D17168281C11F025FC002818
:100E70001CD023002200083303CA03C3A146083C48
:100E80006168281C11F018FC0028F2D14B4652462C
:100E90005D601A6008239C46E0440836D845D8D1E6
:100EA000F0BCBB46B246A946A046F8BDC146524674
:100EB0004B461A605D60EDE770B5002149242022A1
:100EC0000D26114B114802255D5F114B00290FD1F2
:100ED000A54214D099690A42FCD11C600178013006
:100EE0000D394C4261410478C9B2002CEED170BD7D
:100EF00099690A42F1D099690A42F9D1EDE79969F5
:100F00000A42FCD11E60E5E7DC3F0020E01502103C
:100F10000080034070B50478002C17D000212022F7
:100F20000D26114B02255D5F104B00290FD1A54204
:100F300014D099690A42FCD11C60017801300D3946
:100F40004C4261410478C9B2002CEED170BD996960
:100F50000A42F1D099690A42F9D1EDE799690A424A
:100F6000FCD11E60E5E7C046DC3F00200080034066
:100F7000F0B545469846130057464E469246DE4623
:100F8000013BDA0FE0B5D218574601230500894628
:100F900087B052101F40914259DA5346049343469A
:100FA0000E008146019202970391059300E02E0006
:100FB000771C7D00FF006B1E4F449C009A463B68E7
:100FC0004C44984623684146181C9B4611F074FB1C
:100FD000002802D0D846270055464B464246B60068
:100FE000F250019BAB42E2DC039B2C004D4699463C
:100FF000049BBB469A46029F059B9846002F2CD027
:10100000621ED60FB618AA4676104C4509DC14E0CD
:10101000721ED30F9B1825605B103400B1452CDA8B
:101020001E00B70057443D68A4004146281C5444A4
:1010300011F02CFB0028EBD1A3465B4642461A6018
:1010400007B0F0BCBB46B246A946A046F0BD8B0037
:101050009B468344002FF0D14C4651460239CA0FBB
:10106000521852109442CBD15B4664000134A20066
:10107000AA18116893461960C2E7BB46DDE7C0466F
:10108000F0B5DE4657464E464546E0B585B0824649
:101090008B4602920C1A402C00DCC6E0029B002B0F
:1010A00000D1A2E0534604330393029B013B029319
:1010B00053465D6804235B425B4498461B68E4101A
:1010C00099465346A40054442768281C391C1E68BE
:1010D00011F0DCFA494600286ED0381C11F0D6FA1F
:1010E00000287AD14946281C11F0D0FA534600282E
:1010F00000D1A3E04A461A6043461E605346371C9F
:101100001D685E68039B311C281C019311F0D4FA02
:10111000019BD8461C1D002830D0A1460434231F53
:101120001E68291C301C11F0B1FA0028F5D1391CB9
:10113000281C444611F0AAFA083C002827D0A046F3
:101140002768291C381C043C11F0B6FA0028F6D197
:10115000C14522D24B4680C3019343461E6053468D
:101160001D684B465E684346311C043B281C1F68C3
:1011700011F0A2FA019B1C1D0028CED1391C281C9D
:101180009946444611F082FA083C0028D7D104233E
:101190005B429C46E044C145DCD3029A594648462E
:1011A000FFF76EFF4B4652469C1A402C3DDD029BDA
:1011B000002B1BD0CB4679E7281C11F067FA0028DA
:1011C00005D053461D605E6043461F689AE7494656
:1011D000381C11F05BFA00282ED153461F602660A0
:1011E0005E681D6843461F688CE78946A410A51EEB
:1011F0006D1000E0013D5246AB00D358290022009B
:101200005046FFF7B5FE002DF4D14C46043C524643
:101210001268236822605246A51A00215046AA107F
:10122000FFF7A6FE043C042DF1DC05B0F0BCBB4684
:10123000B246A946A046F0BD53465BE71D605E601E
:1012400043461F685EE7C046F0B557464546DE4652
:101250004E460400E0B58BB00390924608001D1C7A
:101260000C1B802C00DCF0E0002A00D1F4E0039B92
:1012700026000833059306936B465746DD77039B9C
:10128000049108219C4636114942F600DA6866440A
:101290008C469346726858469246049A5146624478
:1012A000914652681D0090461A685C68029211F0DF
:1012B00003FA013F4146002800D184E0504611F076
:1012C000FBF92B00002800D084E04146584611F07D
:1012D000F3F9039B002852D11800059D06CD06C0E6
:1012E000029ADC609A604B465B6805909846049BC6
:1012F000BB460293039B069E9A463500261C534626
:101300005C68301C211C2F0011F0D6F9083700282A
:1013100009D03D0008373B1F1E68211C301C11F00E
:10132000CBF90028F5D14046211C11F0AFF9A946B0
:10133000029D103D00282ED02F00211C6868083D1A
:1013400011F0A4F90028F7D13B0002974B4527D9AB
:101350001A004B4614004D461B6803CC03C51360AE
:10136000130056604A46083B5B68D6689846C6E755
:101370004146504611F0A0F9039B00282AD01800DE
:101380004D4606CD06C04A4602995460A0460590D7
:10139000DC681160ABE7029B083B02934B45D7D852
:1013A0005F466B463A00DB7F48460499FFF74CFFE7
:1013B0004B46039A9E1A802E47DD002F17D04B46CE
:1013C000049313005DE7584611F076F90028CFD05A
:1013D000039B81E71800350006CD06C07460DC6809
:1013E0004B46029A5B680590984632607FE734006E
:1013F0001500E410A71E7F1008AE00E0013F320088
:10140000FB00EB1803CB03C2736822000093390082
:1014100028003368FFF76AFC002FEFD14C46039D8C
:10142000083C2200330003CA03C323002A0003CA76
:1014300003C37368671B0093002128003368FA1008
:10144000FFF754FC083C082FEBDC0BB0F0BCBB46AC
:10145000B246A946A046F0BD8146039DC9E7C046F5
:10146000F0B54546DE4657464E46E0B5456885B080
:1014700080460121A80007F025FD0190002868D0D2
:1014800043465B689D4262D1002D44D00024434610
:101490009968230042464B4310689B00C01803AA7A
:1014A0000BF020FA039A0199A300CA5043465B68E7
:1014B00001349C42EBD39D4249D1002B2BD000221A
:1014C0008B46924642464146966852460968B000AD
:1014D0008946424391444A46002A28D05A46176812
:1014E00000220092002E0ED04D4600242868391CA0
:1014F00011F07BF8013401C5A642F7D8009B002B00
:1015000021D143465B68012294460332E24494466B
:10151000E3449A45D6D30024019807F0D7FC200075
:1015200005B0F0BCBB46B246A946A046F0BD0121BD
:1015300007F0C8FC8146002809D05B461F680123DC
:101540000093002ED0D1484607F0C0FCD9E7024CEA
:10155000E2E7024CE3E7C04614FCFFFF16FCFFFF86
:10156000F8B54E464546DE46574644688368E0B5C2
:1015700006000D009C4208D00B6808C44460F0BC13
:10158000BB46B246A946A046F8BD03689946E31A91
:101590009A469A10204B9A423BD04C452FD01300CC
:1015A000D3189A4221D8002B2BD104239B46002329
:1015B00000279846424651462B6853504C4508D068
:1015C0004B4602CB02C29C42FBD1534604334344F8
:1015D0009B464B46002B02D0484607F077FC43461B
:1015E00033605B46B7607360C9E70C4F380007F0A3
:1015F00065FC0423804643449B464744DAE70123C5
:10160000CEE71F0080239B059F4200D3024FBF00FF
:10161000ECE7034814F020F9FFFFFF1FFCFFFF7FFA
:10162000E8150210F0B5DE464E4645465746E0B591
:101630001E00436804000D00934689B0012B00D0C2
:10164000B8E04B68012B00D0B4E09368012B00D0C8
:10165000B0E053687068013B984200D0AAE0B368DC
:10166000012B00D0A6E0A2688B689A4200D0A1E0CE
:101670000121800007F026FC0390002800D195E0AE
:101680005B46586801210138800007F01BFC01907F
:10169000002800D18CE05B465B68AA680293013B9E
:1016A0009846002A2ED02B6805920493236807964B
:1016B0000693002399469B009A465246049B9E58E7
:1016C000029B012B16D05B46002400251F68AD004D
:1016D0007859311C10F0E0FF002806D07B195868BB
:1016E000311C10F0E9FF002845D10134A4B22500D7
:1016F0004445ECD34B46059A01339BB2994693423D
:10170000D9D3079E029B012B1DD033680024994634
:10171000002300259A464F46019BAD005E590021EB
:101720007B19301C994610F0A9FF00281AD1039BA1
:10173000311C585910F05FFF4B460134A4B225000C
:1017400018604445E8D3019807F0C0FB00240398D3
:1017500007F0BCFB200009B0F0BCBB46B246A9466E
:10176000A046F0BD4B4652460134A4B225001A6093
:101770004445D1D3E7E75246039B5C19069B20689A
:10178000995810F035FF019BFE219C46206065446E
:101790002868890510F02CFF4B46059A01339BB24F
:1017A00099462860934200D285E7AAE7024CD1E728
:1017B000014CCCE7014CCDE716FCFFFF14FCFFFF0A
:1017C000F0B54E464546DE465746E0B58DB0069329
:1017D00016AB1B888846994643681400012B00D03D
:1017E0004BE14B68012B00D047E14B465B0803936C
:1017F0004B465B089A465E1C8B68B34200D03CE1C6
:101800005368012B00D038E193689E4200D034E148
:1018100003680593002B00D1B6E00B68002B00D1C4
:10182000B2E01368002B00D1AEE0836804934B450F
:1018300000D29EE001D94B4604934846012107900F
:10184000800007F03FFB021E089000D19CE0079843
:101850000023002806D0FE21890501339BB202C275
:101860009842FAD1484610F031FF051CFE20069937
:10187000800510F0C0FE011C281C10F0D0FE011CD9
:10188000FE20800510F0B7FE256800245746B246BA
:10189000061C200010F015FF311C10F0C0FE2300C4
:1018A000013401C5A4B29F42F3D1012104209B461B
:1018B00007F008FB5646041E099000D1D8E0049DAD
:1018C000059829000BAA0BF00DF80B9F2760002D3F
:1018D0000CD0059A049B944614009D006544206832
:1018E000391C10F082FE01C4AC42F8D10121F00095
:1018F00007F0E8FA039B040001339E4200D0BEE0EB
:10190000049B994549D94B460121980007F0DAFA22
:10191000051E00D1C1E0049F0599BE00320011F000
:101920001FF84B46DA1B00219200A81911F012F89B
:101930004B46202B18D0402B16D0802B14D0802360
:101940005B00994510D080239B0099450CD08023E3
:10195000DB00994508D080231B01994504D08023E2
:101960005B01994500D09AE0280007F0AFFA504D8E
:1019700086E018009AB201218000079207F0A2FACF
:10198000021E089000D062E74A4D28000DB0F0BC5E
:10199000BB46B246A946A046F0BD4B46464A203B50
:1019A0001342E4D04B46454A803B1342DFD08023AC
:1019B0009B009945DBD08023DB009945D7D080235D
:1019C0001B019945D3D0802300265B019945CED0D9
:1019D0000BAB0093002200230021484608F022FDB3
:1019E000051E58D02200059908F0E0FD280007F0F8
:1019F0006DFA002E4BD1079810F068FE069910F092
:101A00000EFE011CFE20800510F0F5FD43461B680C
:101A1000814698460023250000269A46039409E053
:101A2000011C10F0E5FD4346286001C398460136CD
:101A3000B6B20835534628686C68011C6B6010F01C
:101A4000EEFD211C071C201C10F0E9FD011C381CB8
:101A500010F0CEFD494610F0E2FD2860B345DFD11D
:101A60004346039C1860200007F030FA00250AE086
:101A7000104D089807F02AFA87E7114D85E7114DB8
:101A8000200007F023FA099807F020FAF1E70598FB
:101A900007F01CFAAFE7002E04D1064DF0E701264F
:101AA000059595E7059807F011FA024DE8E7C0465D
:101AB00008FCFFFF16FCFFFFDFFF00007FFF0000B8
:101AC00014FCFFFF11FCFFFFF0B5DE464E46574603
:101AD0004546E0B5B3B099463CAB1B781E909B469B
:101AE0003DAB1B7804911C92002B79D11C9D9C4925
:101AF0006C6920001DF024FC002831D1EB69002B1B
:101B000001D001F0F3F95B46002B01D001F0D8F9C8
:101B1000FC211C9B890548469D695E6A10F07FFD8B
:101B2000291C041C10F0B2FD002801D001F06EF950
:101B3000300010F0C6FD291C10F071FD494610F070
:101B40005AFD10F01DFE874B00220FF041FB0FF0F5
:101B50001BFC03000133179301232990169314E112
:101B6000200081491DF0ECFB002800D0FEE0EB696D
:101B7000002B01D001F055F95B46002B01D001F09C
:101B8000D7F9FC211C9B890548469E695C6A10F0C8
:101B900046FD051C011C301C10F08EFD002801D1F3
:101BA00001F009FA200010F08CFD291C10F037FD1F
:101BB000494610F020FD10F0E3FD6A4B00220FF0C3
:101BC000FEFA0FF0E1FB431C1693013001D1012313
:101BD0001693169A6408631C17939B1A2993D4E0F2
:101BE000476881683C004C43631E98460025002CE2
:101BF00001D001F08CF91E9B1F241A680126039264
:101C0000012292464A4605925A46BB461F0006925A
:101C100053469A00039B5046D35899463B005F4673
:101C2000AB464D4699460AE03700AF401D683D433C
:101C30001D6082454BD04B4699685F68151C0FF0BC
:101C400077F8039A794394460818830063441A6826
:101C50001D602300C1170B40CF0E1B185B11C51967
:101C60009B0025405B44ED1BDED537002035AF409F
:101C70003D00043B1F683D431D608245DBD10A00E7
:101C80005D464146CC4609E0370097401B683B4221
:101C900016D0431C81421FD91800DA1723001340C5
:101CA000D70E1B185B11C2199B002240EB18D21BE8
:101CB000EAD5370020329740043B1B683B42E8D10D
:101CC00067467B6888469B468246B968A0E70A005B
:101CD0005D46CC464146E1E763461900059A1E93EE
:101CE0009146069A5B6893468A688B604A60002D2D
:101CF00002D0280007F0EAF8FE211C9B8905DC6869
:101D0000201C10F0BBFC002800D0EFE680211E98BC
:101D1000490243688B4201D301F03FF982688A424D
:101D200001D301F03AF92CA992B24A819BB2120474
:101D30000B8101681343309330AB2F9131911A001E
:101D4000211C2EA80AF07EFD041E00D1CEE6200044
:101D500033B0F0BCBB46B246A946A046F0BDC04673
:101D6000041602100000E03F081602105B46002B2C
:101D700001D001F062F81C9B5A6AD30F9B185B10CC
:101D80005A1C2993012317921693049B1E681E9BCD
:101D90005C68002CDBD0299B04969B002493169B47
:101DA0002D969A002292179AD31A9B00259300230E
:101DB00091001D9330AB289106931E9A9368126888
:101DC0009E0003931D9B7343D31800220F93099326
:101DD0002392002B00D183E20022049B21920B93DB
:101DE000002B00D174E2069A039909980AF09AFD33
:101DF000309B0B9A00211360049B1F68381C10F065
:101E00003DFC002800D0B6E1391C381C10F007FC5E
:101E1000391C10F004FC011C041C381C10F0FFFBE2
:101E2000039B8146002B00D1ACE10F9BA3469A4651
:101E3000B24400269846371C434620CB291C281C58
:101E4000984610F0ECFB291C10F0E9FB011C041C67
:101E5000381C10F0CDFB211C071C281C10F0DFFBE8
:101E6000011C301C10F0C4FB061CC245E4D15C46CA
:101E7000039810F026FC011C8046381C10F0BBFBB8
:101E8000211C10F0B8FB049C4146230060600C3319
:101E9000301C0A9310F0AFFB494610F0ACFBDF4951
:101EA00010F0A3FB1C9BA0605A6A05929B88042B30
:101EB00000D129E235231C9AD35C059A119353086B
:101EC000049301330E93039B9A4200D989E10F9C3E
:101ED000049BA4469B00634420931B680021249A22
:101EE0000A981F9310F036FD039B002B00DC20E1C5
:101EF00001231393002308941593059A229993B212
:101F00001A935B080133109313041A0C93465A0C6E
:101F10009B0B14930E9BD9469F00089B12929C46E4
:101F2000002367449B46BA4601321892289A6144BE
:101F3000624419911B92059E039A33005B440793F8
:101F40009A4201D25B46D61A0E9B109A934200D059
:101F500041E1049B129A934200D03FE10121149881
:101F600006F0B0FF051E00D12DE14E4500D94E46CA
:101F70005B4699000F9BB7009C463A0061442800DD
:101F800010F0EEFC4B469A1B00219200E81910F06D
:101F9000E1FC4B46202B00D1F7E0402B00D1F4E0D0
:101FA000802B00D1F1E080235B00994500D1ECE06B
:101FB00080239B00994500D1E7E08023DB00994511
:101FC00000D1E2E080231B01994500D1DDE08023B0
:101FD0005B01994500D1D8E0189BD80006F06EFF50
:101FE0008046002801D100F0ADFF069B002200933F
:101FF00000210023484608F015FA041E01D100F024
:10200000BFFF4246290008F0D1FA5B46002626931E
:102010004B464746C146AB46A04634002793386836
:1020200010F0AEFB050078680E0010F0A9FB02006E
:102030000B000FF0F4F82A000C900D9133002800EB
:1020400031000FF0ECF802000B000C980D990FF026
:10205000BFF80FF0E9F90021051C10F025FB00285E
:1020600001D100F0FDFD281C10F094FB089AA3009C
:10207000D050189B01340837A342D0D84446C846F4
:102080005D46269B20009B46279B5446994606F0BA
:102090001DFF404606F01AFF280006F017FF1A98A9
:1020A00010F00FFB10F06CFB02000B0000205C49ED
:1020B0000FF097F806000F00089D2868011C10F02B
:1020C000AEFA10F05DFB32003B000FF0A8F80FF005
:1020D000ABF901C5AC42F0D1169B179AA2460A9FF4
:1020E000199D93420ED21B9B98463E682C68311C6A
:1020F000201C10F0E1FA002800D1341C043510C770
:10210000A845F2D1119B002B5AD0139B002B02D073
:10211000209B1F9A1A60049B9C460023E344139360
:10212000039B9B4500DA06E71598002801D006F0CE
:10213000CDFE34231C9AD35C002B00D07EE0249B80
:102140000A9F9C46219B67440497002B00D0B7E070
:10215000099B002B03D0239B002B00D0B4E01E9BD7
:102160001D9A5B6801321D92934200D925E62D9E8F
:10217000BD1BAC10EBE52B4B2B4C9946039B002B66
:1021800000D052E60026371C72E62800159D06F0A6
:102190009DFE002D02D0280006F098FE234C219BC6
:1021A000002B01D000F0AEFE099B002B00D1CEE544
:1021B000239B002B00D1CAE5099806F087FEC6E5EF
:1021C000079B9B46ACE7159D194C002DE7D02800D6
:1021D00006F07CFEE3E7159D164CF6E7159D164CC0
:1021E000F3E704210E9806F06DFE0021089004002C
:1021F000249A0A9810F0AEFB039B002B01DC00F040
:10220000F4FD0F9A049B94469B00634420930023A3
:102210001393002315941F936FE6C04600004040BF
:102220000000F03FC21601006142A20D08FCFFFF52
:1022300016FCFFFF14FCFFFF11FCFFFF299B002B86
:1022400000D17CE70A9C249B2600294DE718002139
:10225000306810F013FA002800D035600436B74219
:10226000F5D1069E20683100400040081FF024F997
:102270002049051C10F0D3F91F4910F0B6F9011CD4
:10228000281C10F0CCF91D4910F0B2F9011C281CD3
:1022900010F0C5F91A4910F0A8F9051C309810F093
:1022A00015FA291C10F0A4F9164910F0B8F901C468
:1022B000A742D7D1219B06960497002B00D147E770
:1022C0000B9806F003FE43E7099806F0FFFD46E78A
:1022D0000121042006F0F6FD01230B90219382E5F5
:1022E0000121300006F0EEFD01230990239373E5F0
:1022F000FFE6DB2EA8A19D3FF5CA8340FBB3C0409B
:10230000E09248409B209A3E9446D30F63445B1072
:1023100001331A00199380239B059A4201D300F0E0
:1023200055FE002A01D100F034FD9400200006F093
:10233000C5FD83462200002110F00CFB5B461D19F1
:102340001C9B5B6A059335231C9AD35C059A1493F6
:1023500053080C9301331093039B9A4201D900F068
:1023600028FD0F9E0C9BB4469B00634420931B6882
:10237000220000215846269310F0ECFA039B002B14
:1023800000DC32E1012315930023B2461193059A34
:102390005E4693B21F935B080133129313041A0C29
:1023A00008925A0C9B0B1893109B13929B0053445A
:1023B0009846199B01321A929B0000229946C34607
:1023C00007922795059C079A230094460399634436
:1023D0000E93994200D28C1A109B129A934201D00C
:1023E00000F0DDFC0C9B139A934201D000F0DCFC62
:1023F0000121189806F066FD0A90002800D1E3E359
:10240000089B9C4200D91C00079BA50099000F9BCC
:102410002A009C460A9B61449846180010F0A0FAD6
:102420004346089F00213A1B9200581910F092FA77
:10243000202F00D1A6E3089B402B00D1A2E3802BE4
:1024400000D19FE31A0080235B009A4200D199E3F8
:1024500080239B009A4200D194E38023DB009A42C0
:1024600000D18FE380231B019A4200D18AE38023AD
:102470005B019A4200D185E31A9BD80006F01EFD4D
:102480001B90002801D100F08BFD069B00220093D9
:1024900000210023089807F0C5FF071E01D100F0B6
:1024A0005DFD00241B9D0A992A0008F07FF84B4629
:1024B000A046A9462A962B972C934B46186810F0F5
:1024C0005FF94B46060058680F0010F059F93200CA
:1024D00004000D003B00300039000EF0A0FE220089
:1024E00006000F002B00200029000EF098FE0200CD
:1024F0000B00300039000EF06BFE0EF095FF00214E
:10250000041C10F0D1F8002801D100F078FC201C48
:1025100010F040F9434652469B00D05001239C46A0
:102520000733E0449C461A9BE1444345C5D82B9FA2
:102530002C9B380099462A9E06F0C8FC1B9806F092
:10254000C5FC0A9806F0C2FC1F9810F0BAF810F00B
:1025500017F902000B000020B4490EF042FEB0460D
:1025600004000D0057465E463868011C10F057F80D
:1025700010F006F922002B000EF051FE0EF054FF71
:1025800001C7B742F0D1199BB34600244646002B41
:102590000DD0534637591D59391C281C10F08CF8A2
:1025A000002800D13D1C355104344C45F1D1149B19
:1025B000002B00D1F8E2159B002B02D0209B269A1D
:1025C0001A600C9A079B9446634407930023159363
:1025D000079B039A934200DAF4E6B346279D119BCA
:1025E000002B02D0180006F071FC5B46EC1AA51017
:1025F000012104200C940A9506F064FC290008903F
:10260000069A58460AF06EF90323290019400391EF
:10261000AF08042C00D8E2E2002F00D14FE30024E1
:102620005E46201C3C0031680FF0E2FF71680FF03D
:10263000DFFFB1680FF0DCFF013CF1680FF0D8FF5D
:102640001036002CEFD13B01041C0A989A46D8465C
:1026500010F037F8039BD0440590002B00D1E0E246
:102660004646201C02CE0FF0C3FF039A031C012A2A
:1026700000D1E2E231680FF0BBFF039B022B00D1D7
:1026800011E3434699680FF0B3FF05990FF0B3FFCC
:102690003B0180469A46002F01D100F003FC4546DD
:1026A0005C460026B8462068291C0FF09EFF011CDE
:1026B0000FF0B5FF311C0FF09BFF291C061C606852
:1026C0000FF093FF011C0FF0AAFF311C0FF090FFD9
:1026D000291C061CA0680FF088FF011C0FF09FFF4B
:1026E000311C0FF085FF291C061CE0680FF07DFFF0
:1026F000011C0FF094FF311C0FF07AFF013F061C04
:102700001034002FCFD14746A846039DDA44002D50
:102710002AD05446414601CC0FF067FF011C0FF050
:102720007EFF011C301C0FF063FF061C012D1BD027
:10273000414620680FF059FF011C0FF070FF011C8B
:10274000301C0FF055FF039B061C022B0CD0534688
:10275000414698680FF049FF011C0FF060FF011C13
:10276000301C0FF045FF061C0599301C0FF043FF8D
:10277000041C011C0FF053FF211C0FF050FF309B75
:10278000051C9846002F00D133E20023A9465C4681
:1027900045469A46B8462068291C0FF026FF061CBD
:1027A000011C0FF03CFF311C0FF039FF51460FF0B8
:1027B0001FFF291C824660680FF017FF061C011CD2
:1027C0000FF02DFF311C0FF02AFF51460FF010FFC4
:1027D000291C8246A0680FF008FF061C011C0FF0A0
:1027E0001EFF311C0FF01BFF51460FF001FF291C8B
:1027F0008246E0680FF0F9FE061C011C0FF00FFF87
:10280000311C0FF00CFF51460FF0F2FE013F8246E3
:102810001034002FBFD14746A8464D463B015B44CC
:102820000793039B002B3AD002E0C0460000F03F24
:10283000079E414630680FF0D8FE041C011C0FF0C3
:10284000EEFE211C0FF0EBFE011C50460FF0D0FEF7
:10285000039B8246012B22D0414670680FF0C5FED3
:10286000041C011C0FF0DBFE211C0FF0D8FE011C24
:1028700050460FF0BDFE039B8246022B0FD041460F
:10288000B0680FF0B2FE041C011C0FF0C8FE211C42
:102890000FF0C5FE011C50460FF0AAFE8246002133
:1028A000281C0FF001FF002800D189E1281C0FF03F
:1028B00071FF0021041C0FF0E1FE002800D07FE131
:1028C000059950460FF097FE211C0FF094FE089BCF
:1028D000069A1860049B0A99D86058460AF002F8D4
:1028E0000C9B042B00D862E1002F00D11AE25C4659
:1028F0003E00002021680FF07BFE61680FF078FE3B
:10290000A1680FF075FE013EE1680FF071FE103412
:10291000002EEFD1039B002B00D17DE1079C02CC60
:102920000FF066FE039A031C012A00D17FE12168A3
:102930000FF05EFE039B022B00D19EE1079B99687E
:102940000FF056FE05990FF056FE061C002F00D121
:102950009AE13D0000235C46A8461F1C2068311CFC
:102960000FF043FE011C0FF05AFE391C0FF040FE21
:10297000311C071C60680FF038FE011C0FF04FFE81
:10298000391C0FF035FE311C071CA0680FF02DFE1E
:10299000011C0FF044FE391C0FF02AFE311C071CED
:1029A000E0680FF022FE011C0FF039FE391C0FF019
:1029B0001FFE013D071C1034002DCFD143461C01E2
:1029C0001F00039B80465C44002B00D116E12300CE
:1029D00001CB311C99460FF008FE011C0FF01FFEC1
:1029E00041460FF005FE039B8046012B00D12AE1F2
:1029F0004B46311C18680FF0F8FD011C0FF00FFE5C
:102A000041460FF0F5FD039B8046022B00D154E1B7
:102A1000311CA0680FF0E9FD011C0FF000FE4146DB
:102A20000FF0E6FD05990FF0E6FD011C0FF0F7FD34
:102A3000309B81469846002F00D112E25C4600266A
:102A400045462068291C0FF0D0FD011C0FF0E7FD62
:102A5000011C0FF0E4FD311C0FF0CAFD291C061CFF
:102A600060680FF0C2FD011C0FF0D9FD011C0FF0D2
:102A7000D6FD311C0FF0BCFD291C061CA0680FF010
:102A8000B4FD011C0FF0CBFD011C0FF0C8FD311C83
:102A90000FF0AEFD291C061CE0680FF0A6FD011C1E
:102AA0000FF0BDFD011C0FF0BAFD311C0FF0A0FDB1
:102AB000013F061C1034002FC3D1A846039D002DF2
:102AC00033D0079C414601CC0FF08FFD011C0FF065
:102AD000A6FD011C0FF0A3FD011C301C0FF088FDAA
:102AE000061C012D21D0414620680FF07EFD011CFF
:102AF0000FF095FD011C0FF092FD011C301C0FF032
:102B000077FD039B061C022B0FD0079B414698685C
:102B10000FF06BFD011C0FF082FD011C0FF07FFD1B
:102B2000011C301C0FF064FD061C002148460FF00C
:102B3000A5FD002846D10599301C0FF05CFD4946E3
:102B40000FF059FDE3490FF050FD089B16991860EE
:102B5000049B1A00143218610A921798229A0023D3
:102B60005A44814206D2D1580A98C150259904335B
:102B70009942F8D1089806F0A9F9584606F0A6F946
:102B8000FFF7D7FA119B0A98994606F09FF94B4632
:102B9000B346002B02D0484606F098F9CE4C584672
:102BA00006F094F9FFF7FBFA0E9B079310E5309BB4
:102BB000984600239946002F00D03FE71E1C7DE772
:102BC000002084E6C548C0E7119BB3469946C44C33
:102BD0004B46002BE3D0484606F078F9DFE70A9829
:102BE0000FF06FFD309B002598460590002F00D018
:102BF000CBE55B46079300239A4612E605990FF052
:102C0000FAFC011C0FF00BFD309B81469846002614
:102C1000002F00D012E788E705990FF0ECFC061CA6
:102C200097E6011C201C0FF0E6FC804637E505996D
:102C3000181C0FF0E0FC061C8BE60599181C0FF021
:102C4000DAFC80462BE505990FF0D5FC011C0FF04E
:102C5000E6FC309B81469846002F00D0EEE688E0E7
:102C60000021089AA300D150189B01340837A342D1
:102C700001D9FFF7D4F9FFF701FA05990FF0BBFC72
:102C8000061C002F00D064E65B4601CB311C994640
:102C90000FF0ABFC011C0FF0C2FC00210FF0A8FCF0
:102CA0005C468046A4E605990FF0A5FC8046002FFF
:102CB00000D1F7E03B019A46F1E40599B3E60A98A2
:102CC0000FF0FFFC039B0590002B00D1D9E05E467E
:102CD000002101CE0FF08CFC039BD846012B00D0C5
:102CE000C8E4059C211C0FF086FC5B46011C18689B
:102CF0000FF07BFC011C0FF092FC00210FF078FC20
:102D0000211C0FF078FC041C011C0FF088FC211C16
:102D10000FF085FC309B051C98465B46079300230B
:102D20009A4685E5039B002B00D190E0079C00218B
:102D300001CC0FF05DFC039A031C012A00D0F6E5DC
:102D4000059C181C211C0FF056FC5B46011C1868E2
:102D50000FF04BFC011C0FF062FC00210FF048FC4F
:102D6000211C0FF048FC011C0FF059FC309B8146E0
:102D70009846079B414618680FF037FC011C0FF07E
:102D80004EFC011C0FF04BFC00210FF031FC061C27
:102D9000CBE6002300249B460025FFF7D4FA119BC5
:102DA000B34699464F4C13E7119BB34699464E4C98
:102DB0000EE70421109806F085F822001190060015
:102DC000002158460FF0C6FD039B002B00DC06E4F3
:102DD0000F9A0C9B94469B00634420930023159309
:102DE0000023B2462693FFF7D2FA089B002B01D1AD
:102DF000FFF79FF9180006F069F8FFF79AF94346C4
:102E0000524600219B00D150FFF788FB30000FF0A5
:102E100058FC211C0FF003FC49460FF0ECFBFEF7B9
:102E200090FE4946AA691E98DBB2FDF76BFD041EB1
:102E300001D1FEF7A1FEFEF78AFF1E98FEF710FBF8
:102E4000002801D1FEF797FF0400FEF780FF0599E7
:102E500000200FF0D0FB011C0FF0E1FB00268146A3
:102E600063E6079C191C01CC0FF0BFFB011C0FF09F
:102E7000D6FB011C0FF0D3FB00210FF0B9FB061CA1
:102E800031E6011C00200FF0B6FB041C011C0FF002
:102E9000C6FB211C0FF0C3FB5B4607930023051CF8
:102EA0009A46FCE45C46414601CC0FF09EFB011CB7
:102EB0000FF0B5FB00210FF09BFBDA46061C37E450
:102EC0001E98FEF7CDFA002801D1FEF721FE04007E
:102ED000FEF73DFF0000404008FCFFFF000040C03F
:102EE00016FCFFFF14FCFFFF11FCFFFF4946AA6917
:102EF0001E98DBB2FDF782FB041E01D1FEF703FE34
:102F0000FEF725FF0B9805F0E1FFFFF74DF91F34A1
:102F10006409A400200005F0D1FF051E03D02200A3
:102F200000210FF017FD1E9B99685F68FEF763FE96
:102F30001E98FEF795FA002801D1FEF722FE040044
:102F4000FEF705FF2800159D05F0C0FF002D02D0FB
:102F5000280005F0BBFF1F4CFFF721F9119B1B9FB9
:102F60009946380005F0B2FF0A9805F0AFFF4B46CE
:102F7000B346002B02D0484605F0A8FF154C0EE6DC
:102F80002C004046159D05F0A1FF200005F09EFF96
:102F9000002DDDD10F4CFFF702F90F4CFEF7D7FEE5
:102FA000119B0A98994605F091FF4B46B346002BBA
:102FB000E1D1084CF3E520000FF083FB311C0FF04A
:102FC0002EFB49460FF017FBFEF7F5FD034812F004
:102FD00043FCC04616FCFFFF0CFCFFFF101602105E
:102FE000F8B582680D004368097804005A43032944
:102FF00009D0092942D001292FD03A4805F03AFFDB
:103000000D204042F8BDA96991425BD100260029FC
:1030100008D120E0FF20B8556268A3680136534309
:10302000B34218D92268B3009858E9680FF0E3FA60
:103030000FF0F8FB0FF06CFB2B696F68C018FF28CE
:10304000E8DCC343DB171840B8556268A368013653
:103050005343B342E6D80020D4E7AB6999089142C4
:1030600036D10029F7D00023046868688900E25847
:10307000C25004339942FAD10020C3E7A9699142B2
:1030800020D10026002908D1E5E77F20B8556268E5
:10309000A36801365343B342DDD92268B300985880
:1030A000E9680FF0A8FA0FF0BDFB0FF031FB2B69B8
:1030B0006F68C0187F28E8DC03008033E6DA8020E0
:1030C0004042E3E7084805F0D5FE1820404299E762
:1030D0000321D8170140C9180348891005F0CAFE1A
:1030E000F3E7C0468816021044160210F0B55746A2
:1030F0004E464546DE46E0B585B00EAB10CB05002A
:103100001B780F0099463C23C35C002B1BD0442343
:10311000C156C35C062B63D8012354228B401A424C
:1031200034D12C3A1A4200D183E0397809292DD0C4
:1031300002230A009A43012A28D0594805F09AFE32
:103140000A2040421BE06E23C35A4E6898460B7813
:10315000092B1ED04346002B10D08423C1584B4668
:103160000834002B40D100224746F058CD58013298
:103170002560606004330834BA42F6D3002005B0FD
:10318000F0BCBB46B246A946A046F0BD1520404261
:10319000F5E708690FF09AFAFB689A464346002B58
:1031A000ECD08423EF584B460834002B47D1002540
:1031B000B9465746B246061C534658570FF086FA92
:1031C000311C0FF012FA391C0FF029FA4A46AB00F5
:1031D000D3580135236060600834A845ECD8CDE7AA
:1031E000304805F047FEABE72F4B002702932F4BEB
:1031F000B146019384239B46163B9A4680464B4634
:10320000BD005E594959029805F034FE301C05F0A6
:1032100049FE019805F02EFE43465A4699585246FB
:103220009B5A4A5901372260666008349F42E6D3B0
:10323000A4E70129D4D11E4805F01CFE80E7002335
:103240009846B346A94626004446174B039002937E
:10325000164B01935B4618570FF038FA03990FF09D
:10326000C4F951460FF0DBF9A300F958051C029888
:10327000984605F0FFFD281C05F014FE019805F0A6
:10328000F9FD4B4684229F58163A9B5A4246BA583B
:1032900001343260756008369C42DBD36EE7C0466D
:1032A000F41602102C170210601702107C1902107D
:1032B000AC160210F0B5DE4657464E4645461C0099
:1032C000E0B5C7B050AB1B7815009A4623690600DD
:1032D00099468B4636AF07F02DFA26AB20000193B6
:1032E0009846009716AB06AA04A9FDF7BDFC041E7C
:1032F00007D0200047B0F0BCBB46B246A946A04666
:10330000F0BD584606A9FFF76BFE041EF1D1049BE1
:10331000059C4A46029303949368984700283AD143
:1033200007F008FA029B039CC01AA141F0239B46B8
:10333000AB445B46FA2218605960920000230DF0FE
:103340001DFDE023E85053460100002B1FD15346DA
:103350003A00019330004346009516A9FFF7C6FED8
:103360004B460400DB680F489847002C09D007F053
:10337000E1F9029A039B801A99415B4618605960F3
:10338000B7E705F075FD831CF1D10400EFE70648AF
:1033900005F070FDDBE7F02303249B466442AB4459
:1033A000E5E7C0463503001068170210F0B5DE46A9
:1033B00057464E464546E0B51C00DDB010928046AB
:1033C0001000802266AB1B785200119323698B4654
:1033D00000219A460FF0BEFA3CAB01934CAB009330
:1033E00020002CAB1CAA1AA9FDF73EFC061E00D03B
:1033F0002EE1202214AB9B181B78092B02D0032B43
:1034000000D0D7E207F096F9434600221D691D9BC4
:1034100091460E900F910893002B00D1BFE24346D6
:103420009B6B20989C680FF051F943465B6D0390AD
:103430009B68E2490493A368E0680D931BF080FF4A
:103440005A46431E9841126943001F9E01330A9257
:10345000002A00D1A3E0002209934B460B9212935D
:10346000524643460027D94613951492159380235C
:103470000A9ADB0005929A4200D905930D98059CA3
:1034800001216043800005F01DFD0690002800D159
:1034900030E24B460B9A9B68199218941790002BB8
:1034A00000D18AE24B464846DC6818AA17AB19A936
:1034B000A0470A9B002B58D0FF239B464B46002574
:1034C000B8460C93371C069AAB00D0580FF052F94F
:1034D0005A46030C04001A405B46060A1E401C4074
:1034E000434601330793089B914643449A46099B00
:1034F000B349381C032B00D1F3E00FF0BFF80028CC
:1035000000D1ADE0C321039809060FF0B7F80028F9
:1035100000D1A5E0049B002B00D01EE14B46A9483A
:103520005843A94B7343C01823011B1B1B011B19D4
:103530005A01D31AC01800140FF0C8F88621C90523
:103540000FF053F80FF0E4F87F2800DCCBE17F2088
:1035500040B253461870079B9846059B0135AB4215
:10356000B1D80C9B3E1C994647460A9B059A069883
:103570009B1A0A9305F0AAFC8022D20094460B9B6A
:1035800063441A000B934B461B699A4200D26EE7C4
:10359000149B139D9A46129B9946159B984605F0DD
:1035A00067FC023000D1F7E107F0C4F80E9B0F9CD6
:1035B000C01AA141109CFA222300E8331860596018
:1035C000920000230DF0DAFBDC23E050119B010098
:1035D000002B00D0A2E107F0ADF8534604000D0027
:1035E0009B681A941B959847002800D0DFE107F0EC
:1035F000A1F8109E001BA9413700FA22F0370023E2
:103600003860796092000DF0B9FBE023F050119B17
:1036100040460193109B4CAA00932CA93CABFFF7AA
:1036200065FD53460600DB6868489847002E00D0C9
:1036300068E105F01DFC023000D1ADE107F07AF839
:10364000001BA941089B38607960002B00D05DE128
:1036500030005DB0F0BCBB46B246A946A046F0BD06
:1036600048460FF02EF8804630000FF02AF8061C6E
:1036700020000FF026F8049B041C002B79D1404653
:1036800053490EF0B8FF52498046301C0EF0B3FF8C
:103690004F49061C201C0EF0AEFF041C40464D494D
:1036A0000EF0BDFF4C498046301C0EF0B8FF011CE7
:1036B00040460EF09DFF4949061C201C0EF0AFFF4E
:1036C000011C301C0EF094FF391C0EF094FF0FF01B
:1036D000A9F8011C03980EF08BFF0FF019F840B207
:1036E00037E70EF0CBFF002800D185E0C321039817
:1036F00009060EF0C3FF002800D17DE0049B484678
:10370000002B00D0BFE00EF0E1FF8621C9050EF0CE
:103710006CFF0EF0FDFF43B2300099460EF0D6FF6D
:103720008621C9050EF061FF0EF0F2FF46B22000BF
:103730000EF0CCFF8621C9050EF057FF0EF0E8FF12
:1037400040B253464A461A70089B079A9E54534605
:10375000987003239C46E044FFE648460EF0B1FF14
:10376000804630000EF0ADFF061C20000EF0A9FFD1
:10377000041C049B022B91D1404615490EF03BFFDF
:1037800017490EF032FF17490EF035FF10498046F9
:10379000301C0EF030FF14490EF027FF13490EF0D5
:1037A0002AFF0B49061C201C0EF025FF10490EF0C5
:1037B0001CFF10490EF01FFF041C6FE7A01502103C
:1037C0008180803B8B4C0000459600003503001043
:1037D00000007F438716993EA245163FD578E93D04
:1037E000EC51F83EFA7E6A3ED578E93E4260653E8D
:1037F0003BDFCF3E6666663E48460EF062FF81467E
:1038000030000EF05EFF061C20000EF05AFF049BF5
:10381000041C002B42D1484669490EF0ECFE684971
:103820008146301C0EF0E7FE6549061C201C0EF098
:10383000E2FE041C391C48460EF0DDFE0EF0F2FFDD
:10384000011C03980EF0D4FE0EF062FF391C43B247
:10385000301C99460EF0CFFE0EF0E4FF011C0398D9
:103860000EF0C6FE0EF054FF391C46B2201C0EF0BE
:10387000C2FE0EF0D7FF011C03980EF0B9FE0EF049
:1038800047FF40B25DE70EF01CFF814630000EF0AE
:1038900018FF061C20000EF014FF041C049B022BD2
:1038A000C8D1484646490EF0A6FE46490EF09DFE98
:1038B00045490EF0A0FE42498146301C0EF09BFEA9
:1038C00042490EF092FE42490EF095FE3C49061C1C
:1038D000201C0EF090FE3F490EF087FE3E490EF090
:1038E0008AFE041CA6E70300803300DB30E680205C
:1038F00040422DE6129B052638483949994605F085
:10390000B9FA7642089B002B00D1A1E64B46002B6A
:1039100000D19DE6089805F0D9FA99E6314805F0FE
:10392000A9FA002D15D0089B2F4E9C461C0065441B
:103930000020209B20560134C01A0EF0C7FE1F99AC
:103940000EF06DFE05F0AEFA300005F093FAAC42D1
:10395000EED1264805F08EFA06F0ECFE5346040040
:103960000D009B681A941B95984700281FD106F0FC
:10397000E1FE109E001BA9413700FA22F037002318
:103980003860796092000DF0F9F9E0230100F05001
:10399000174805F06FFA3AE602267642B2E70121AF
:1039A000280005F08FFA01230890994637E5032691
:1039B0007642A7E7092676424AE611F081FFC04623
:1039C00000007F43EC51F83EFA7E6A3ED578E93E2E
:1039D0004260653E3BDFCF3E6666663E9C17021046
:1039E00016FCFFFF88170210544E02107C190210BB
:1039F00068170210F0B5DE4657464E4645460400AD
:103A0000E0B59A46436D8B4658681968A36D914698
:103A1000A3B0022B00D1E7E00B2B05D88A221201BC
:103A2000DA40D20700D5DFE080220021520048466C
:103A30000EF090FF25690121A80005F043FA20212E
:103A4000012308AA521813700E930D900F9506F0DB
:103A500071FE636B06900791002B00D185E0A04BAF
:103A6000002704939F4B002505934B46089353462C
:103A7000099303E0636B01359D4272D2AA00A36BE8
:103A8000521992009B181A681E6990465A68039250
:103A90009A689146DA683B00924622694744974209
:103AA00000D9D7E00D989B00C0180023002800D152
:103AB000C9E0302108AA521813700123129343461B
:103AC00013935B46199353461A931DAB0021119033
:103AD0000C22180098461B961C940EF03BFF002306
:103AE000A169584620938E4218D000690DF020F944
:103AF00046430021082216A821960EF02BFF19AB91
:103B000015930BAB1A0015AE03CE03C2424603CB8E
:103B100003C24046049B1F93059B20934A46236B98
:103B2000039E11A9B047002800D099E005F0A0F944
:103B3000831C00D1AEE01F9B002B03D00322414623
:103B4000404698471198002894D0302208AB9B1823
:103B50001B78002B8ED005F0B9F9636B01359D42BF
:103B60008CD3089B9946099B9A4606F0E3FD069A7A
:103B7000079B801A99414B46FA22E8331860596036
:103B8000920000230DF0FAF8DC234A46D050534649
:103B90000100002B00D088E0236D002B00D17BE0DA
:103BA0000025C846564604E0236D01359D4200D3EA
:103BB00072E06B00626D5B199B00D218536800962F
:103BC0001768200042460DA9B8470028ECD006002F
:103BD0000D9800282FD0202208AB9B181B78002BB3
:103BE00029D005F073F926E06C23E35C002B00D0AC
:103BF0001AE73D4B994200D016E7437B002B00D1DA
:103C000012E7636B012B00D00EE7A26B374B5268B3
:103C10009A4200D008E780220021520048460EF068
:103C200099FE5246636D59465B68200000924A46F1
:103C3000FFF7BCFB0600300023B0F0BCBB46B24629
:103C4000A946A046F0BD43460121980005F03AF987
:103C500001232EE70526264805F00CF97642B7E742
:103C6000244B01000526180005F004F976421F9B3D
:103C7000002B03D003224146404698471198002864
:103C8000A6D0302208AB9B181B78002BA0D005F0E3
:103C90001DF99DE70600EAE705F0EAF8831C5A42A1
:103CA000534106005B421E4092E7134805F0E2F8DC
:103CB0000F9B002B0DD00025104E0D9BAA00D05855
:103CC00005F0F0F8300005F0D5F80F9B01359D4266
:103CD000F3D30B4805F0CEF80A4805F0CBF85BE7C4
:103CE000450C001045050010B532001061030010AE
:103CF000C41702109C17021088170210544E0210AD
:103D00007C190210F0170210F0B5DE4657464E46F9
:103D10004546E0B5ED4CA5440FF0B0F89621EC4CCB
:103D2000090120000AF012FF0221082009F052FCCC
:103D30000221092009F04EFCE121200049020AF08D
:103D4000C9FFC022236B12021340E24A2000136015
:103D50000821012200230BF019F8002120000BF0AC
:103D600053F8DD4B00241393DC4B149311F022FC29
:103D700013A811F03BFC402000210AF0D5FAD84BE3
:103D8000D84918009B4611F03BFB0321042009F0A1
:103D900021FC0321052009F01DFC00220121042043
:103DA00009F030FC00220121052009F02BFC2A2318
:103DB000CD4F1C213B803A00283B5846009411F01F
:103DC00049FB87235B003B800D3B3A001C21FF3BF6
:103DD0005846009411F03EFB95235B003B80293B45
:103DE000FF3B3A001C215846009411F033FB00239E
:103DF0000B931AAB0C93BD4B0893BD4B0993BD4B72
:103E00000A93BD4B0F93BD4B1093BD4B1193802371
:103E10009B019A465B460793BA480AF099FA30220A
:103E200000210C980EF096FD1AAB98460C930123D6
:103E30009B4600239946079B4646984606F07AFC27
:103E400000255B46B04C089A24184D4100931C2174
:103E50000123404611F0FEFA4B463A0000931C2124
:103E60000223404611F05EFB3B7878789B01800886
:103E700018435346184200D128E2C004C00C0EF08B
:103E800020FC8C21C9050EF0B0FBE82189050EF05D
:103E9000C6FB9E490EF0C3FB5B4630601C21099AAD
:103EA00000934046012311F0D5FA4B463A000093A7
:103EB0001C210223404611F035FB3B7878789B01AA
:103EC000800818435346184200D1F7E1C004C00CE3
:103ED0000EF0F7FB8C21C9050EF087FBE821890560
:103EE0000EF09DFB89490EF09AFB5B4670601C2129
:103EF0000A9A00934046012311F0ACFA4B463A006F
:103F000000931C210223404611F00CFB3B7878788B
:103F10009B01800818435346184200D1CAE1C004EF
:103F2000C00C0EF0CEFB8C21C9050EF05EFBE82123
:103F300089050EF074FB75490EF071FBB06006F058
:103F4000F9FB241A8D41200029000AF0EDF90C3606
:103F500026ABB34200D071E7434607930C230822F7
:103F6000002149A819930EF0F5FC0C9B48A90822E2
:103F700026A848930EF0F4FC15AB26AA03CA03C387
:103F800080220F9B00211793109B520048A8189382
:103F90000EF0E0FC8822119926A80EF0E1FC002327
:103FA00048AA15A926A8FFF725FD002800D0C4E1DE
:103FB00013A811F071FB802113AA490088A80AF008
:103FC000CDFB4B9C0021201C0EF076FBA046002868
:103FD00001D1002398464D9D4146281C0EF06CFBF4
:103FE000002800D088E1002345469B464F9B281CB3
:103FF000191C98460EF04AFB002800D06EE1A84636
:10400000519D4046291C0EF041FB002800D070E174
:10401000251C281C0EF0B4FB3D4C009001912200A1
:10402000002100200D940CF0B1FD3A4A0B9B0021B9
:10403000050000200E920CF0A9FD040001352800B7
:104040000EF046FC611C0124814608000E000EF0B3
:104050003FFCA446E3445C468046E40048A80319BC
:1040600058680EF08DFB0D9A00900191290048468A
:104070000CF08CFD0B9B0E9A310040460CF086FD37
:10408000F0220CAB9B181B59234A934200D137E115
:10409000224A934200D166E1214A934200D140E195
:1040A0000D264925002020221E4BB4460221595ED0
:1040B0001D4C074B079E002800D0C5E0A94200D147
:1040C000CAE098690242FCD130E0C046DCFCFFFF48
:1040D0000080034030900340E7070B0F030F2D00D3
:1040E00048210020801A0600E43A0020B21B02108A
:1040F000B11B0210B01B0210210C00104503001070
:10410000542A0210B80B000020A10700C3F51C417F
:104110006C1802107018021074180210A018021007
:10412000D4180210DC3F0020E01502101D6020783A
:1041300001340D38454268412578C0B2002DBAD10E
:1041400043461D78444600200796002D18D00D26C2
:104150002022B4468A4B079E002800D082E08D4280
:1041600000D187E098690242FCD11D6020780134BB
:104170000D38454268412578C0B2002DECD1079634
:104180000D26202500202022B4467E4C7C4B079E25
:10419000002875D18D427AD098690242FCD11D6009
:1041A000207801340D38454268412578C0B2002D91
:1041B000EED14B461D780796002D18D00D264C46A3
:1041C00000202022B4466E4B079E002865D18D4208
:1041D0006AD098690242FCD11D60207801340D3804
:1041E000454268412578C0B2002DEED10796484679
:1041F0000EF0A4FB40460EF0A1FBF0240AF094F967
:104200005B460CAA1219DB00D55888AA029248AA6C
:10421000944604900591634458680EF0B1FA5A4CE4
:104220002A000B9D009001912900200004F022FE3D
:104230002B0001330B93179B002B00D1ECE515A944
:10424000032208009847E7E59869024200D16DE72C
:1042500098690242F8D169E798690242FCD1604648
:1042600018602EE79869024200D17EE79869024201
:10427000F8D17AE798690242FCD16046186071E78C
:10428000986902428BD098690242F9D187E7986910
:104290000242FCD1604618607EE7986902429BD0DA
:1042A00098690242F9D197E798690242FCD16046C9
:1042B00018608EE780B20EF004FA38E680B20EF095
:1042C00000FAE82189050EF0AAF90BE680B20EF09B
:1042D000F8F9E82189050EF0A2F9DAE50223519DEB
:1042E0004046291C44469B460EF0D0F9002800D1D8
:1042F0008EE603239B468CE601232C1C9B4675E629
:104300001F4B9B699B0600D571E7FCF7D5FD404626
:10431000FCF700FE1D48FCF7FDFD4846FCF7FAFDE2
:1043200065E7FCF7C9FD4046FCF7F4FD1848FCF7CB
:10433000F1FD4846FCF7EEFD59E7164B0100180069
:1043400004F098FD179B002B03D015A90322080049
:1043500098470120C9239B009D44F0BCBB46B24650
:10436000A946A046F0BDFCF7A7FD4046FCF7D2FDEC
:104370000948FCF7CFFD4846FCF7CCFD37E7C046BF
:104380000080034000190210241902107C1802104A
:10439000DC18021048180210AC180210F0B545469F
:1043A00057464E46DE46E0B503681500426883B0C6
:1043B00098460192D31A2D4A07000E000C00DB101C
:1043C000934250D0019A904541D01A0041469A1824
:1043D000711A8A46934230D8002A3CD10022082321
:1043E000934691464A462900524421C921C2B0450C
:1043F00008D04A46434603CB03C2B342FBD15346DF
:1044000008334B44019AB24223D0951B5D1903CC6B
:1044100003C3AB42FBD14346002B02D0404604F01D
:1044200055FD4B463B605B467D60BB6003B0F0BC16
:10443000BB46B246A946A046F0BD0D4B9B4658462A
:1044400004F03CFD81460300CB440833CAE7012257
:10445000BCE71D00DFE780235B059A4200D3034AD7
:10446000D3009B46EBE7034811F0F6F9FFFFFF0F7F
:10447000F8FFFF7FE8150210F0B54546DE464E46D0
:104480005746E0B5ADB01C0036AB20CB4E681B786C
:104490000990984638AB1B880491039339AB1B787D
:1044A00008929B464368B34200D028E25A463B9BA1
:1044B00057005B6881687A1C002B00D013E29142A0
:1044C00000D01CE23B9B9B68012B00D017E20498B4
:1044D000FCF7C6FF8146002800D0FCE1012C00D18A
:1044E00004E2022C00D14EE3B300012118009846EB
:1044F00004F0E8FC0E90002800D141E3049B5B68C7
:104500009E4200D0E3E3002428AD002E14D0BA462A
:10451000049E2F000E9D2300B16830684B439B0022
:104520003A00C01808F0FEF9289AA300EA50736810
:1045300001349C42EFD3574640460121784304F0B2
:10454000C1FC8046002800D127E3049B5B68002B58
:1045500000D1BAE1039A5308591C17938B000C93AE
:10456000930014935B46DB0013935B460A91109112
:1045700059465B0001220133002900D01A00930044
:10458000159300230693434612934B461993049ABE
:10459000069B95681268A8004343D3180D93002B1F
:1045A00000D1DBE200221C931AAB1A7501231D9384
:1045B00000231E950F9301210C9804F083FC0590B5
:1045C000002800D146E3109B0A9A934200D0AFE244
:1045D0000121149804F076FC8046002800D1A7E25F
:1045E000039B9D4200D91D00AE0032000D9940464C
:1045F0000EF0B6F93000039C0021621B920040448B
:104600000EF0A8F9202C00D189E2039B402B00D1A9
:1046100085E2802B00D182E21A0080235B009A425F
:1046200000D17CE280239B009A4200D177E2802374
:10463000DB009A4200D172E280231B019A4200D132
:104640006DE280235B019A4200D168E20A9BD800A8
:1046500004F034FC0790002800D160E228AB0093FE
:104660009A46002200230021039805F0DBFE041E79
:1046700000D12FE3079E4146320005F097FF00234B
:104680009946434600270B935B46B846B3461194C0
:1046900016935B4618680EF073F85B460600586880
:1046A0000F000EF06DF802000B000CF0B8FD3200A8
:1046B00004000D003B00300039000CF0B0FD02009A
:1046C0000B00200029000CF083FD0CF0ADFE002152
:1046D000041C0DF0E9FF002800D1C5E2201C0EF0FB
:1046E00059F84346059A9B00D05001239C46073356
:1046F000E0449C460A9BE3444345CAD80B9B119C6B
:104700009846169B20009B4604F0E0FB079804F0B7
:10471000DDFB404604F0DAFB03980DF0D2FF011CEC
:104720008020C0050DF067FFFE218905051C0DF0F6
:10473000A5FF00280FD150460123109A059924ACFB
:104740006280428041602380038025915246200090
:10475000291C08F077F80121139804F0B3FB0B90A3
:10476000002800D17BE25B46002B00D145E101210E
:104770000C9804F0A7FB0790002800D1FDE1FE2073
:10478000089980050DF037FF011C0DF031FF011C69
:10479000FE2080050DF02FFF039B051C5B10984643
:1047A00000D1D3E1012B00D104E25F1E38000DF0EF
:1047B00088FF011C281C0DF01EFF0024A9463D00A7
:1047C000071C20000DF07DFF391C0DF028FF002193
:1047D0000DF00EFF079BA60001349851AC42F0D1BA
:1047E0001A004D46D64B43449B009D505B469C00AF
:1047F0005C440121E00004F065FB1190002800D129
:10480000A4E1179B002B00D156E2059A1168894656
:10481000012B00D150E2161D002216925A4661006B
:104820004F4601249B4618911A922AE07368281C6F
:10483000191C98460DF040FF00282BD0391C281C6D
:104840000DF0D3FE4146071C281C0DF0CEFE011CC6
:10485000381C0DF0CDFE00210DF02EFF002819D0E0
:1048600048460DF02EFF169F119BBD005851189A17
:104870007B1C9BB216939A4244D037680436A345FA
:1048800040D03568391C281CA14601340DF014FFB6
:104890000028CBD12F1CF1E743461D00129B0400DA
:1048A0003000984604F012FBA146280004F00EFBED
:1048B000079804F00BFB0B9804F008FB059804F034
:1048C00005FB0F9B002B00D078E1404604F0FEFA78
:1048D0000E9804F0FBFA48462DB0F0BCBB46B24639
:1048E000A946A046F0BD013BD218E8E54346089929
:1048F00004982A1CFBF782FE002800D1F4E5914BB6
:104900009946E8E71A9B00229B46002328922993A8
:10491000002352469360169B002B00D1D3E1002266
:104920000027002600259046994624AC0CE0330071
:10493000220003CA03C31E0053460135EDB25E6078
:10494000A94521DD53469F68119AAB0098580DF098
:1049500011FF079B80001B582360059B19583A984C
:1049600061600DF0A9FE002802D043462360636019
:10497000B742DCD10135310022005046EDB2FFF7DD
:104980000DFD299E4D45DDDB289BF51A1693EF1092
:10499000B34200D016E1BB4500D859E131000025F3
:1049A0005646B36825606560994200D1F8E00B0077
:1049B000220003CA03C301377360BB4500D9F7E087
:1049C000289BB2461A00169300215C460B9B106888
:1049D0000131186050680832586008338C42F6D8AC
:1049E000169BA346002B02D0180004F06FFA119812
:1049F00004F06CFA079804F069FA0C9C012120007D
:104A000004F060FA01270A9D20AA914607902090A1
:104A1000177321972295002800D12BE12000012156
:104A200004F050FA24AC24908046277325972695ED
:104A3000002800D128E1039B220000934946089BEF
:104A40001CA8FCF7BDFE002800D028E13B9A0121FC
:104A50005268551EA800119204F034FA524628906C
:104A6000061E17735560976000D112E1089B210064
:104A70000093484653463B9AFCF7D4FD002800D0EB
:104A80000AE7099A0699936817684B430E9A9B00A8
:104A9000FF188B00D3583B605B46002B0DD00021E4
:104AA0005C460B9A3B1D1068013118605068083253
:104AB000586008338C42F6D8A346002D10D0204B06
:104AC000119D9C46159B65449C460024AD0067449F
:104AD00030591D490DF08FFD38510434A542F7D1EE
:104AE000300004F0F3F9404604F0F0F9079804F0C0
:104AF000EDF90B9804F0EAF9059804F0E7F90F9B3B
:104B0000002B18D1049B069A5B68013206929342EF
:104B100000D93CE5129B9846199B9946D5E6454637
:104B2000129B2800984604F0D1F9064B9946C5E639
:104B3000129B9846F9E70D9804F0C8F9E2E7C046E1
:104B4000FFFFFF3F14FCFFFF00002041129B07986E
:104B5000984604F0BBF9644B9946ACE6012104F099
:104B6000B1F901231AA90D901C900B751D931E9588
:104B7000002800D19BE00F931DE5129B9846EAE7C1
:104B80005A4B9946A7E64346089904982A1CFBF716
:104B9000B9FE002800D1A7E4B1E6544B994697E648
:104BA000220030000137FFF7F9FBBB4500D807E7CB
:104BB0007168F6E60023079A136017E60D9804F073
:104BC00085F982E638000CF053F81F22121A169865
:104BD0000023310052008046FCF736FB802D4EDD6D
:104BE00043461D00803540462900FCF70FF9782226
:104BF000434694466344994608235B429846B04432
:104C0000B54200D1C7E618974F461A961B943D004F
:104C1000EE68AB686968301C994608370DF04CFDAA
:104C2000002842D02B002A00083303CA03C32C00FB
:104C3000083D6968301C0DF03FFD0028F2D14B465D
:104C400066602360B845E2D1189F1A9E1B9CA2E6BD
:104C5000169AB9E6129B9846244B994631E6129B68
:104C60009846224B994629E643464946059A9B00B9
:104C7000D1503AE5129B98461C4B99461BE63100F1
:104C80001698FCF7C3F886E6129B9846174B994690
:104C90000EE643461D00129B144C984604E643461C
:104CA0001D00129B81469846FFE53C00C7E7129B1A
:104CB00098460E4B994608E6002200232892299335
:104CC0000023524693600026002724AC66E6064B7C
:104CD0009946FDE54546129B0798984604F0F6F87C
:104CE000280004F0F3F820E714FCFFFF16FCFFFF98
:104CF000F8B54546DE4657464E460C00E0B5050081
:104D0000002914D0466803682A499846F31A9A1075
:104D10009B46AB68881A9B1B9B109C420DD8A40035
:104D200022000021300034190DF014FE6C60F0BC3C
:104D3000BB46B246A946A046F8BDA04236D3A3184A
:104D40009A46944225D853009A4229D91A4B99463B
:104D5000484604F0B3F85B460700A20000218144F6
:104D6000C0180DF0F7FD3A004346B04503D002CB22
:104D700002C29E42FBD14346002B02D0404604F0C3
:104D8000A5F853469B002F60FF184B466F60AB6041
:104D9000CDE780229205934206D29B009946D7E741
:104DA000802292059342F8D30B00F6E7034810F0F7
:104DB00053FDC046FFFFFF1FFCFFFF7F801902105D
:104DC00084B070B52C9D0591069269682A68079396
:104DD0002D9E04908B1A4C2B2AD9502B03D950327C
:104DE000914200D06A6072683468131B4C2B17D94B
:104DF000502B04D9230050339A4200D07360002214
:104E00002E6817AB04AD18681900B050186D043B3C
:104E1000A05004328D42F6D170BC08BC04B01847D3
:104E200014219B103000C91AFFF762FF3468E6E7CF
:104E300014219B102800C91AFFF75AFFD3E7C04678
:104E400084B070B5189C059106926168226807933A
:104E5000199D04908B1A242B46D9282B03D928326C
:104E6000914200D0626069682B68CA1A242A33D93B
:104E7000282A04D91A002832914200D06A60226898
:104E80000D991160179919600C9951601699596024
:104E90000B999160159999600A99D1601499D9601C
:104EA0000999116113991961089951611299596110
:104EB00007999161119999610699D1611099D96108
:104EC000059911620F991962049951620E9A5A62FA
:104ED00070BC08BC04B018470A2192102800891A37
:104EE000FFF706FF2B68CAE70A219B102000C91AAA
:104EF000FFF7FEFEB7E7C04684B070B51C9C059175
:104F000006926168226807931D9D04908B1A2C2BD2
:104F10004ED9302B03D93032914200D0626069689B
:104F20002B68CA1A2C2A3BD9302A04D91A003032ED
:104F3000914200D06A6022680F9911601B99196034
:104F40000E9951601A9959600D999160199999605B
:104F50000C99D1601899D9600B9911611799196151
:104F60000A99516116995961099991611599996147
:104F70000899D1611499D96107991162139919623D
:104F80000699516212995962059991621199996233
:104F90000499D162109ADA6270BC08BC04B0184758
:104FA0000C2192102800891AFFF7A2FE2B68C2E795
:104FB0000C219B102000C91AFFF79AFEAFE7C046EC
:104FC00084B070B5209C05910692616822680793B1
:104FD000219D04908B1A342B56D9382B03D93832A3
:104FE000914200D0626069682B68CA1A342A43D99A
:104FF000382A04D91A003832914200D06A602268F7
:10500000119911601F991960109951601E9959608A
:105010000F9991601D9999600E99D1601C99D96082
:105020000D9911611B9919610C9951611A99596176
:105030000B999161199999610A99D1611899D9616E
:105040000999116217991962089951621699596262
:1050500007999162159999620699D1621499D9625A
:10506000059911631399196304995163129A5A634C
:1050700070BC08BC04B018470E2192102800891A91
:10508000FFF736FE2B68BAE70E219B102000C91AE5
:10509000FFF72EFEA7E7C04684B070B5249C0591AB
:1050A0000692616822680793259D04908B1A3C2B19
:1050B0005ED9402B03D94032914200D062606968CA
:1050C0002B68CA1A3C2A4BD9402A04D91A0040320C
:1050D000914200D06A602268139911602399196087
:1050E00012995160229959601199916021999960A2
:1050F0001099D1602099D9600F9911611F99196198
:105100000E9951611E9959610D9991611D9999618D
:105110000C99D1611C99D9610B9911621B99196283
:105120000A9951621A995962099991621999996279
:105130000899D1621899D96207991163179919636F
:105140000699516316995963059991631599996365
:105150000499D163149ADA6370BC08BC04B0184790
:10516000102192102800891AFFF7C2FD2B68B2E7C0
:1051700010219B102000C91AFFF7BAFD9FE7C04617
:1051800084B070B5109C06920793626823680591FD
:10519000119D0490D11A142936D9182903D918332E
:1051A0009A4200D063606A682B68D11A142923D907
:1051B000182904D9190018318A4200D06960226880
:1051C000099911600F991960089951600E995960F9
:1051D000079991600D9999600699D1600C99D960F1
:1051E000059911610B991961049951610A9A5A61E3
:1051F00070BC08BC04B0184706238910591A28004F
:10520000FFF776FD2B68DAE7062389102000591A8C
:10521000FFF76EFDC7E7C04684B070B50C9C0692E0
:1052200007936268236805910D9D0490D11A0C299B
:105230002ED9102903D910339A4200D063606A68CE
:105240002B68D11A0C291BD9102904D91900103147
:105250008A4200D069602268079911600B99196031
:10526000069951600A995960059991600999996068
:105270000499D160089ADA6070BC08BC04B0184781
:1052800004238910591A2800FFF732FD2B68E2E742
:10529000042389102000591AFFF72AFDCFE7C046E2
:1052A00084B070B5289D0591069269682A680793B5
:1052B000299E04908B1A442B2AD9482B03D94832B3
:1052C000914200D06A6072683468131B442B17D96E
:1052D000482B04D9230048339A4200D0736000223F
:1052E0002E6815AB04AD18681900B050986C043BDB
:1052F000A05004328D42F6D170BC08BC04B01847EF
:1053000012219B103000C91AFFF7F2FC3468E6E75F
:1053100012219B102800C91AFFF7EAFCD3E7C04608
:1053200084B070B5149C0692079362682368059157
:10533000159D0490D11A1C293ED9202903D9203368
:105340009A4200D063606A682B68D11A1C292BD955
:10535000202904D9190020318A4200D069602268CE
:105360000B991160139919600A995160129959604B
:1053700009999160119999600899D1601099D96043
:10538000079911610F991961069951610E99596137
:10539000059991610D9999610499D1610C9ADA612D
:1053A00070BC08BC04B0184708238910591A28009B
:1053B000FFF79EFC2B68D2E7082389102000591ABA
:1053C000FFF796FCBFE7C046F0B54E464546DE46C1
:1053D0005746E0B50C00CFB0E6490500160019F0BD
:1053E000AFFF002800D139E22800E34919F0A8FFF7
:1053F000002800D184E12800E04919F0A1FF00282D
:1054000000D1B4E22800DE4919F09AFF002800D14B
:10541000EAE22800DB4919F093FF002800D158E2A6
:105420002800D94919F08CFF002800D17DE328001D
:10543000D64919F085FF002800D1E3E32800D449BC
:1054400019F07EFF002800D128E32800D14919F087
:1054500077FF002801D100F022FC2800CE4919F086
:105460006FFF002801D100F06FFC2800CB4919F034
:1054700067FF002801D100F0C9FC2800C84919F0D5
:105480005FFF002801D100F0FCFC2800C54919F09D
:1054900057FF002801D100F0D8FD2800C24919F0BB
:1054A0004FFF002801D100F029FE2800BF4919F064
:1054B00047FF002801D100F050FE2800BC4919F038
:1054C0003FFF002801D100F09FFE2800B94919F0E4
:1054D00037FF002801D100F0C2FE2800B64919F0BC
:1054E0002FFF002801D100F0C7FE2800B34919F0B2
:1054F00027FF002801D100F0DFFE2800B04919F095
:105500001FFF002801D100F0C5FE2800AD4919F0A9
:1055100017FF002801D100F003FF2800AA4919F065
:105520000FFF002801D100F0F6FE2800A74919F06E
:1055300007FF002801D100F0E1FE2800A44919F07E
:10554000FFFE002801D100F0CCFE2800A14919F08F
:10555000F7FE002801D100F0E8FF28009E4919F06D
:10556000EFFE002801D100F0DAFF28009B4919F076
:10557000E7FE002801D100F0A3FF2800984919F0A8
:10558000DFFE002801D100F096FF2800954919F0B0
:10559000D7FE002801D100F089FF2800924919F0B8
:1055A000CFFE002801D100F07CFF28008F4919F0C0
:1055B000C7FE002801D100F06FFF28008C4919F0C8
:1055C000BFFE002801D100F062FF2800894919F0D0
:1055D000B7FE002801D100F055FF2800864919F0D8
:1055E000AFFE002801D100F048FF2800834919F0E0
:1055F000A7FE002801D100F03BFF2800804919F0E8
:105600009FFE002801D100F02EFF28007D4919F0EF
:1056100097FE002801D100F021FF28007A4919F0F7
:105620008FFE002801D100F013FF2800774919F000
:1056300087FE002801D100F006FF2800744919F008
:105640007FFE002801D100F0F9FE2800714919F011
:1056500077FE002801D100F0ECFE28006E4919F019
:105660006FFE002801D100F0DFFE28006B4919F021
:1056700067FE002801D100F0D2FE2800684919F029
:105680005FFE002801D100F0C5FE2800654919F031
:1056900057FE002801D100F0B8FE2800624919F039
:1056A0004FFE002801D100F0ABFE28005F4919F041
:1056B00047FE002801D100F045FE28005C4919F0A2
:1056C0003FFE002801D100F038FE2800594919F0AA
:1056D00037FE002801D100F0FFFD2800564919F0DF
:1056E0002FFE002800D0E6E0544D5549259624941D
:1056F000902268460DF034F90FCDFFF761FBDAE038
:10570000616822688B1A242B00D8DBE0282B03D990
:105710002832914200D0626071683368CA1A242A24
:1057200000D89EE1282A04D91A002832914200D0DC
:105730007260802100202268424C434DA446434EB3
:10574000434F09061560186056605960976098606D
:10575000D460404CD96014611C6154613E4C5C6162
:10576000644694619861D761D96116621862556286
:105770005962A0E09C190210A4190210AC19021081
:10578000B4190210BC190210C4190210CC1902106D
:10579000D4190210DC190210E4190210EC190210DD
:1057A000F4190210FC190210041A02100C1A02104B
:1057B000141A02101C1A0210241A0210281A0210BD
:1057C0002C1A0210301A0210341A0210381A021061
:1057D0003C1A0210401A0210441A02104C1A02100D
:1057E000541A02105C1A0210641A02106C1A021089
:1057F000741A02107C1A0210841A02108C1A0210F9
:10580000941A02109C1A0210A41A0210AC1A021068
:10581000B41A0210BC1A0210C41A0210CC1A0210D8
:10582000D41A0210DC1A0210E41A0210EC1A021048
:10583000F41A0210FC1A0210041B0210141C0210AD
:10584000241C0210CEE6F83DB6C3873CB6C387BC25
:10585000CEE6F8BDF304353FF30435BF6268236834
:10586000D11A142900D8B8E0182903D918339A425C
:1058700000D0636072683368D11A142900D8A4E09C
:10588000182904D9190018318A4200D0716080208B
:1058900000252268C249C34CC34E000614601D6037
:1058A0005660586091609960D160C049D9601661B6
:1058B0001D61546158614FB0F0BCBB46B246A94669
:1058C000A046F0BD0A219B102000C91AFFF710FA6C
:1058D00022E7676825687B1B9846342B00D8C8E010
:1058E000382B04D92B0038339F4200D06360736893
:1058F00037689846DB1B9946342B00D8ABE1382B30
:1059000004D93B003833984500D07360A84B00227F
:105910002B609A468023A749A748A84CA84E1B068F
:105920003A60884668607B60AC60BA60EE60FB609D
:105930002961A4493A6189466961A3497B61A961EA
:10594000A249B9618C464946E9619849F9614146E5
:1059500029626146396251466E627B62AC62BA620C
:10596000E862FB6229633A636A637B63A3E7616869
:1059700022688B1A142B00D8D0E0182B03D91832C8
:10598000914200D0626071683368CA1A142A00D844
:10599000BCE0182A04D91A001832914200D0726073
:1059A0008020226800248949894D8A4E00061560AE
:1059B0001C605160586096607C4E9960D160DE60DA
:1059C000156119615461586175E706238910591AE8
:1059D0003000FFF78DF9336859E70623891020005E
:1059E000591AFFF785F945E7616822688B1A242B5D
:1059F00000D8CEE0282B03D92832914200D0626033
:105A000071683368CA1A242A00D8BAE0282A04D94F
:105A10001A002832914200D072606F4E2268B4465C
:105A20006E49002011608846802164466C4D684FA5
:105A3000090618605560596097609860D660694E95
:105A4000D9601661614E1E615461584C5C614446D8
:105A500097619E61D561D961146218625062596282
:105A600029E70A2192103000891AFFF741F93368BB
:105A70005FE60E229910531A9946A368DB1B9B1010
:105A80004B4500D2A8E24B469B00994638001A00CD
:105A900000214F440CF05EFF676028E761682268D0
:105AA0008B1A1C2B00D8A2E1202B03D92032914263
:105AB00000D0626071683368CA1A1C2A00D89DE160
:105AC000202A04D91A002032914200D0726080212D
:105AD0002268002409068846434E4448444D454FF9
