:020000041000EA
:1000000000B5324B212058609868022188439860DF
:10001000D860186158612E4B002199600221596106
:100020000121F02299502B49196001219960352056
:1000300000F044F80222904214D00621196600F024
:1000400034F8196E01211966002018661A6600F04E
:100050002CF8196E196E196E052000F02FF8012189
:100060000842F9D1002199601B49196000215960AB
:100070001A491B48016001219960EB211966A021F2
:10008000196600F012F800219960164914480160C1
:100090000121996001BC002800D000471248134993
:1000A000086003C880F30888084703B5996A0420EC
:1000B0000142FBD001200142F8D103BD02B5186610
:1000C0001866FFF7F2FF186E186E02BD00000240BE
:1000D000000000180000070000035F00212200005C
:1000E000F4000018222000A00001001008ED00E03C
:1000F00000000000000000000000000074B24E7A12
:1001000000200420F7010010C3010010C5010010F9
:10011000C1010010C1010010C1010010C101001097
:10012000C1010010C1010010C1010010C701001081
:10013000C1010010C1010010C9010010CB01001065
:10014000CD010010CD010010CD010010CD01001037
:10015000CD010010CD010010CD010010CD01001027
:10016000CD010010CD010010CD010010CD01001017
:10017000CD010010CD010010CD010010CD01001007
:10018000CD010010CD010010CD010010CD010010F7
:10019000CD010010CD010010CD010010CD010010E7
:1001A000CD010010CD010010CD010010CD010010D7
:1001B000CD010010CD010010CD010010CD010010C7
:1001C00000BE00BE00BE00BE00BE00BEEFF3058054
:1001D000103800BEF2EB8871A45D0210D05D0210F1
:1001E0003402001090A31AE700201F49086006C8D7
:1001F00081F3088810471D48006800282FD10DA4FE
:100200000ECC002902D000F012F8F9E71849194A7B
:10021000002000E001C19142FCD1174988471749ED
:1002200088471749884700BEFDE701C901C29A42C5
:10023000FBD37047D05D0210C0000020382800209A
:1002400048850210000004200000042048850210A8
:10025000001004200010042000000000704709482E
:1002600010F05EFA0047000008ED00E0000000D04A
:10027000382800200040002055ED0010513C0010AF
:1002800085EE00105756000006005250ABB3605385
:100290004037021006005250861C030250370210ED
:1002A000060052505422A29D5437021005005250AD
:1002B000DE65F46848850210F8B5C046064807496F
:1002C000091A8B10C90FC91810B5491003D0044B77
:1002D000002B00D0984710BD382800203828002077
:1002E00000000000054B10B5002B03D00449054861
:1002F00000E000BFFFF7E2FF10BDC04600000000B5
:10030000843F00204010021010B5041E10D00029B8
:100310000ED001310818012108F0F0FB031E07D0B0
:10032000621C121860421040821EC31A138000E043
:10033000002010BD10B5831E1B88C01A08F0E2FB18
:1003400010BDC04610B5040018680B68126821681B
:100350009B009200C91812F055F8002010BDC0464D
:10036000F0B5DE4657464E464546E0B593688DB03B
:1003700004000691D0686D4905931EF033FD431EBD
:1003800098410021226943000133019202910391B7
:10039000002A00D184E007938022019BD2009B4673
:1003A000934200D993465846059B0121584380004B
:1003B00008F0A4FB8246002800D1B2E0029B0B901B
:1003C00009935B460A93A368002B00D1ABE00BAB0B
:1003D0002000E5680AAA09A9A847019B002B4DD077
:1003E000069B1E68079B032B62D0B046039B00252B
:1003F0009B0098440023FF2699460494534658597D
:1004000011F00AFF0400000A304011F0ACFE484928
:1004100011F043FE474911F054FE071C200C3040F8
:1004200011F0A1FE424911F038FE434911F049FE96
:10043000011C381C11F02EFE071C2000304011F06A
:1004400092FE3B4911F029FE3C4911F03AFE011C95
:10045000381C11F01FFE4346585101239C46E144CD
:100460000435CB45CAD8039A01990023049C013274
:10047000002901D05B46013B9B1803935A46019B20
:1004800050469B1A019308F03DFB8022D20094460F
:10049000029B63441A0002932369934200D97BE7CD
:1004A00000200DB0F0BCBB46B246A946A046F0BD48
:1004B000039BA1469B00F618FF23002798465C4645
:1004C0005246BB00D05811F0A7FE43460500000C71
:1004D000184011F048FE164911F0DFFD4346306028
:1004E000280A184011F03FFE114911F0D6FD706046
:1004F0004046284011F037FE0D4911F0CEFD01377E
:10050000B0600C36BC42DBD8039A0199A3460023A5
:100510004C4603320029AFD05B465B005B44033B93
:10052000AAE70748BDE714F01DFFC04640100210BF
:1005300000007F43A245163F8716993ED578E93DD6
:1005400016FCFFFFF0B5DE4657464E464546E0B581
:100550001B68056887B00193AB680F009B46EB688A
:10056000594638689C69160010F034F960435946C2
:100570000700306810F02EF94443A2460023BA4425
:1005800099465A46574534D2002A32D04B469C00F1
:10059000019B00269C4601236444984605E0AA6816
:1005A000731C043493421AD21E006B6828689B5D4A
:1005B0000394DB190593434604938368002B1AD0F8
:1005C000C36804AA9B4605A903ABD8470028E6D018
:1005D00007B0F0BCBB46B246A946A046F0BDEB68EA
:1005E0009B69FF18574504D24B46B14601339944E5
:1005F000CAE70020ECE714F0B5FEC046F0B5574658
:100600004E46DE464546E0B507009BB0101C1993E8
:100610001A007B680E1C002B00D164E15310099373
:1006200011F000FEB44AB54B10F04BFB0400301C37
:100630000D0011F0F7FD0B0002002900200010F062
:1006400022FB10F091FC10F041FC041C11F0EAFDBB
:1006500016901791211C201C11F033FD099B10905E
:100660009B000893002312971193129B099D1A680F
:100670009C68119B0421634328001592189308F08D
:100680003DFA04210190280008F038FA0421029074
:10069000280008F033FA04210390280008F02EFA0D
:1006A00004218346280008F029FA04218046280006
:1006B00008F024FA8246002D00D1FAE0199810F0D3
:1006C00079FB02000B0010F0D5FA0A900B911698F6
:1006D000179902000B0010F0CDFA0C900D91FE203E
:1006E000109D8005291C11F0D2FC11F09BFD0B0020
:1006F000020010F0BFFA002700260E900F91281C70
:1007000011F090FD5B46B146C346B846069007918E
:1007100013941493484610F04DFB02000B0010F0A8
:10072000A9FA0022764B10F0A5FA734A734B10F029
:10073000C8FA0A9A0B9B10F0A6FA10F0FFFB10F013
:10074000C5FB11F06FFD0C9A0D9B10F0BAFA069ADA
:10075000079B06000F0010F08DFA0022684B10F086
:1007600089FA10F0B3FB041C011C109811F095FCE1
:100770004246019B9850201C11F054FD02000B00D2
:1007800004000D000E980F9910F07DFA10F09EFBFA
:100790004246029B98503200069807993B0010F0A1
:1007A00060FA0022564B10F065FA80221206944639
:1007B0000B006344059304902200049805992B00D4
:1007C00010F061FA10F082FB4246039B985001231F
:1007D0009C460333E1449C46099BE0444B4599D138
:1007E000149B139CD8469B46002C62D01599189AEE
:1007F000894693009944A3189B00CE1806960024BE
:1008000043461959029B185911F05BFC534619597C
:10081000039B051C185911F054FC011C281C11F0F5
:1008200039FC4B46196811F035FC5B4618514346BC
:10083000051C185911F0F6FC02000B0010F01AFA12
:100840000600281C0F0011F0EDFC02000B00300028
:10085000390010F00FFA5346060018590F0011F036
:10086000E1FC02000B003000390010F003FA019B9C
:10087000060018590F0011F0D5FC02000B003000E3
:10088000390010F01EFA10F021FB4B461860434669
:1008900052461B5913515B4642461B591351089B44
:1008A0000434A342ACD104239C46069BE144994501
:1008B000A5D1019808F026F9029808F023F90398C9
:1008C00008F020F9584608F01DF9404608F01AF9DA
:1008D000504608F017F9129B119A5B680132119289
:1008E000934200D9C1E600201BB0F0BCBB46B24623
:1008F000A946A046F0BDC046182D4454FB2109402E
:100900000000F03FF0B557464E46DE464546E0B59E
:1009100007009BB0101C19931A007B680E1C002B5B
:1009200000D16EE153100E9311F07CFCB94ABA4B22
:1009300010F0C7F90400301C0D0011F073FC0B001F
:1009400002002900200010F09EF910F00DFB10F0BD
:10095000BDFA041C11F066FC16901791211C201C96
:1009600011F0AFFB0E9B3C009B00039300231890FB
:100970000F932368A56814930F9B0E9E6B4304216D
:100980003000159308F0BAF804210190300008F007
:10099000B5F804210290300008F0B0F80421834635
:1009A000300008F0ABF804218246300008F0A6F8C9
:1009B00004210700300008F0A1F88046002E00D185
:1009C00005E1199810F0F6F902000B0010F052F949
:1009D000089009911698179902000B0010F04AF937
:1009E0000A900B91FE20189E8005311C11F04FFBE0
:1009F00011F018FC02000B0010F03CF90C900D9166
:100A0000301C11F00FFC52460023119242469946C9
:100A10009846A24606900791109512971392404669
:100A200010F0C8F902000B0010F024F900227B4BF3
:100A300010F020F9774A784B10F043F9089A099B97
:100A400010F021F910F07AFA10F040FA11F0EAFBF8
:100A50000A9A0B9B10F035F9069A079B06000F00C7
:100A600010F008F900226D4B10F004F910F02EFA86
:100A7000041C011CFE20800511F00FFB4A46019B5F
:100A80009850201C11F0CEFB02000B0004000D005A
:100A90000C980D9910F0F7F810F018FA4A46029BDE
:100AA00098503200069807993B0010F0DAF80022BF
:100AB0005A4B10F0DFF88022120694460B00634474
:100AC000059304902200049805992B0010F0DBF8A0
:100AD00010F0FCF95B464A46985001239C460333CC
:100AE000E0449C460E9BE144434598D1139B109DE6
:100AF0009846119B5446129F9A46002D67D0159A2E
:100B00001499944665448C46AD0065448946069523
:100B1000089445465446930099440026A246A846A8
:100B2000029BB959985911F0CCFA434699595B4642
:100B3000041C985911F0C5FA011C201C11F0AAFAE6
:100B40004B46196811F0A6FA5346985111F06AFB0A
:100B50000400B8590D0011F065FB02000B0010F005
:100B600089F802000B002000290010F07AF84346B3
:100B7000040098590D0011F055FB02000B002000F5
:100B8000290010F077F8019B040098590D0011F02E
:100B900049FB02000B002000290010F092F810F031
:100BA00095F94B4642461860BB59935153469B59A1
:100BB000BB51039B0436B342B2D104239C46069B2F
:100BC000E144544645469945A7D19046089C019872
:100BD00007F098FF029807F095FF584607F092FF3C
:100BE000504607F08FFF380007F08CFF404607F0B3
:100BF00089FF0F9B01331A000F936368934200D95A
:100C0000B7E600201BB0F0BCBB46B246A946A046E2
:100C1000F0BDC046182D4454FB2109400000F03FB0
:100C2000012A07D0022A09D0032A01D0002A03D0C2
:100C3000002070470160FBE70260F9E70B68036082
:100C4000F6E7C046012A07D0022A09D0032A01D0BC
:100C5000002A03D0002070470160FBE70260F9E73B
:100C60000B680360F6E7C046F0B5C646884600B597
:100C70001F0005690400160009F078FB4346186060
:100C8000596018486B689847002822D1310000202D
:100C90002B699847002819D13900A07A6B699847C9
:100CA000002813D10923E356012B03D0002080BC78
:100CB000B846F0BD207B6B6907999847002805D19D
:100CC000E07A6B69069998470028EFD003204042EC
:100CD000EDE7054B0100180007F0E8FE0620404252
:100CE000E5E7C046090300104C10021082B0F0B5D1
:100CF00045464E46DE465746E0B585B00F93531E37
:100D00008846D90FC9180F9B03920093109B0500CA
:100D1000994601231A404910019288456DDA4B46E5
:100D200044468B4681460293671C7D006B1EDE00A5
:100D30003F014F444E44796870689A4611F0F8F9C3
:100D4000E4004C44002807D0330006CB06C4D3454A
:100D50004DDD55462C00E7E73B0006CB06C4AB450E
:100D6000F8DC029BBB462F004D469946019B002BA9
:100D70000FD103980238C10F09184910B94208D1A0
:100D80007F000137F90069185A4608008B4648C8A9
:100D900048C2791ECE0F7618761047450BDC15E059
:100DA0002300721E03CB03C7D30F9B1837005B10C1
:100DB000B0451ADA1E00F4002C19FF00494660689D
:100DC000EF1911F0CBF90028EAD1BB465B46009A37
:100DD0001A604A465A6005B0F0BCBB46B246A94606
:100DE000A046F0BC08BC02B01847A346EEE7029B41
:100DF0004D4657469946B346B8E74346DB009B4607
:100E0000019B8344002BE1D14746B2E7F8B5DE46AB
:100E100057464E4645468B46E0B5070088423FD0D0
:100E200008239846804488453AD0060011E0B8452A
:100E300006D0434638003900DA1B08301DF0D2FED8
:100E400053463B6008239C46E0447D600836D84505
:100E500026D0F568B3687968281C34009A4611F0EA
:100E60007DF90028E3D17168281C11F077F900287A
:100E70001CD023002200083303CA03C3A146083C48
:100E80006168281C11F06AF90028F2D14B465246DD
:100E90005D601A6008239C46E0440836D845D8D1E6
:100EA000F0BCBB46B246A946A046F8BDC146524674
:100EB0004B461A605D60EDE7F0B545469846130075
:100EC00057464E469246DE46013BDA0FE0B5D21851
:100ED000574601230500894687B052101F409142B2
:100EE00059DA5346049343460E0081460192029715
:100EF0000391059300E02E00771C7D00FF006B1E20
:100F00004F449C009A463B684C44984623684146AF
:100F1000181C9B4611F022F9002802D0D846270061
:100F200055464B464246B600F250019BAB42E2DCCE
:100F3000039B2C004D469946049BBB469A46029F54
:100F4000059B9846002F2CD0621ED60FB618AA46D5
:100F500076104C4509DC14E0721ED30F9B182560F7
:100F60005B103400B1452CDA1E00B70057443D68D1
:100F7000A4004146281C544411F0DAF80028EBD1B3
:100F8000A3465B4642461A6007B0F0BCBB46B24679
:100F9000A946A046F0BD8B009B468344002FF0D1AC
:100FA0004C4651460239CA0F521852109442CBD1C6
:100FB0005B4664000134A200AA18116893461960C8
:100FC000C2E7BB46DDE7C046F0B5DE4657464E46B3
:100FD0004546E0B585B082468B4602920C1A402CFD
:100FE00000DCC6E0029B002B00D1A2E05346043394
:100FF0000393029B013B029353465D6804235B42CB
:101000005B4498461B68E41099465346A400544438
:101010002768281C391C1E6811F08AF849460028E8
:101020006ED0381C11F084F800287AD14946281C6B
:1010300011F07EF85346002800D1A3E04A461A601A
:1010400043461E605346371C1D685E68039B311C77
:10105000281C019311F082F8019BD8461C1D002822
:1010600030D0A1460434231F1E68291C301C11F007
:101070005FF80028F5D1391C281C444611F058F8B7
:10108000083C002827D0A0462768291C381C043CAF
:1010900011F064F80028F6D1C14522D24B4680C336
:1010A000019343461E6053461D684B465E684346A7
:1010B000311C043B281C1F6811F050F8019B1C1DBB
:1010C0000028CED1391C281C9946444611F030F82E
:1010D000083C0028D7D104235B429C46E044C1452C
:1010E000DCD3029A59464846FFF76EFF4B465246FC
:1010F0009C1A402C3DDD029B002B1BD0CB4679E790
:10110000281C11F015F8002805D053461D605E60BC
:1011100043461F689AE74946381C11F009F8002831
:101120002ED153461F6026605E681D6843461F68C7
:101130008CE78946A410A51E6D1000E0013D5246C3
:10114000AB00D358290022005046FFF7B5FE002D12
:10115000F4D14C46043C5246126823682260524641
:10116000A51A00215046AA10FFF7A6FE043C042D44
:10117000F1DC05B0F0BCBB46B246A946A046F0BDC6
:1011800053465BE71D605E6043461F685EE7C046EE
:10119000F0B557464546DE464E460400E0B58BB0F6
:1011A0000390924608001D1C0C1B802C00DCF0E014
:1011B000002A00D1F4E0039B260008330593069330
:1011C0006B465746DD77039B049108219C463611F8
:1011D0004942F600DA6866448C469346726858467F
:1011E0009246049A51466244914652681D009046C8
:1011F0001A685C68029210F0B1FF013F4146002876
:1012000000D184E0504610F0A9FF2B00002800D048
:1012100084E04146584610F0A1FF039B002852D1BC
:101220001800059D06CD06C0029ADC609A604B4608
:101230005B6805909846049BBB460293039B069E01
:101240009A463500261C53465C68301C211C2F0032
:1012500010F084FF0837002809D03D0008373B1FF5
:101260001E68211C301C10F079FF0028F5D1404683
:10127000211C10F05DFFA946029D103D00282ED0D4
:101280002F00211C6868083D10F052FF0028F7D19C
:101290003B0002974B4527D91A004B4614004D4698
:1012A0001B6803CC03C51360130056604A46083B15
:1012B0005B68D6689846C6E74146504610F04EFF38
:1012C000039B00282AD018004D4606CD06C04A468A
:1012D00002995460A0460590DC681160ABE7029B60
:1012E000083B02934B45D7D85F466B463A00DB7FFD
:1012F00048460499FFF74CFF4B46039A9E1A802EEE
:1013000047DD002F17D04B46049313005DE7584686
:1013100010F024FF0028CFD0039B81E71800350090
:1013200006CD06C07460DC684B46029A5B68059087
:10133000984632607FE734001500E410A71E7F1046
:1013400008AE00E0013F3200FB00EB1803CB03C204
:10135000736822000093390028003368FFF7C6FC49
:10136000002FEFD14C46039D083C2200330003CAF6
:1013700003C323002A0003CA03C37368671B0093D7
:10138000002128003368FA10FFF7B0FC083C082F52
:10139000EBDC0BB0F0BCBB46B246A946A046F0BDA4
:1013A0008146039DC9E7C046F0B54546DE4657462F
:1013B0004E46E0B5456885B080460121A80007F09B
:1013C0009DFB0190002868D043465B689D4262D136
:1013D000002D44D0002443469968230042464B43E5
:1013E00010689B00C01803AA0BF098F8039A0199A3
:1013F000A300CA5043465B6801349C42EBD39D4234
:1014000049D1002B2BD000228B46924642464146C2
:10141000966852460968B0008946424391444A465C
:10142000002A28D05A46176800220092002E0ED0BB
:101430004D4600242868391C10F029FE013401C5EE
:10144000A642F7D8009B002B21D143465B680122BE
:1014500094460332E2449446E3449A45D6D30024AA
:10146000019807F04FFB200005B0F0BCBB46B24628
:10147000A946A046F0BD012107F040FB81460028A7
:1014800009D05B461F6801230093002ED0D1484647
:1014900007F038FBD9E7024CE2E7024CE3E7C0462D
:1014A00014FCFFFF16FCFFFFF8B54E464546DE462E
:1014B000574644688368E0B506000D009C4208D09A
:1014C0000B6808C44460F0BCBB46B246A946A046BF
:1014D000F8BD03689946E31A9A469A10204B9A423F
:1014E0003BD04C452FD01300D3189A4221D8002B63
:1014F0002BD104239B4600230027984642465146A1
:101500002B6853504C4508D04B4602CB02C29C423C
:10151000FBD15346043343449B464B46002B02D039
:10152000484607F0EFFA434633605B46B7607360A6
:10153000C9E70C4F380007F0DDFA04238046434426
:101540009B464744DAE70123CEE71F0080239B0533
:101550009F4200D3024FBF00ECE7034813F0CEFEDA
:10156000FFFFFF1FFCFFFF7F80100210F0B5DE467B
:101570004E4645465746E0B51E00436804000D0040
:10158000934689B0012B00D0B8E04B68012B00D006
:10159000B4E09368012B00D0B0E053687068013B61
:1015A000984200D0AAE0B368012B00D0A6E0A26860
:1015B0008B689A4200D0A1E00121800007F09EFADA
:1015C0000390002800D195E05B465868012101385E
:1015D000800007F093FA0190002800D18CE05B4670
:1015E0005B68AA680293013B9846002A2ED02B68BC
:1015F00005920493236807960693002399469B005F
:101600009A465246049B9E58029B012B16D05B467D
:10161000002400251F68AD007859311C10F08EFDA4
:10162000002806D07B195868311C10F097FD00285F
:1016300045D10134A4B225004445ECD34B46059A6C
:1016400001339BB299469342D9D3079E029B012B4B
:101650001DD0336800249946002300259A464F4642
:10166000019BAD005E5900217B19301C994610F09A
:1016700057FD00281AD1039B311C585910F00DFD5D
:101680004B460134A4B2250018604445E8D30198C4
:1016900007F038FA0024039807F034FA200009B064
:1016A000F0BCBB46B246A946A046F0BD4B465246EA
:1016B0000134A4B225001A604445D1D3E7E752466D
:1016C000039B5C19069B2068995810F0E3FC019B72
:1016D000FE219C46206065442868890510F0DAFCEC
:1016E0004B46059A01339BB299462860934200D23B
:1016F00085E7AAE7024CD1E7014CCCE7014CCDE7E6
:1017000016FCFFFF14FCFFFFF0B54E464546DE46D3
:101710005746E0B58DB0069316AB1B8888469946B0
:1017200043681400012B00D04BE14B68012B00D023
:1017300047E14B465B0803934B465B089A465E1CA9
:101740008B68B34200D03CE15368012B00D038E1F4
:1017500093689E4200D034E103680593002B00D1CA
:10176000B6E00B68002B00D1B2E01368002B00D16B
:10177000AEE0836804934B4500D29EE001D94B460E
:101780000493484601210790800007F0B7F9021E34
:10179000089000D19CE007980023002806D0FE2185
:1017A000890501339BB202C29842FAD1484610F033
:1017B000DFFC051CFE200699800510F06EFC011C64
:1017C000281C10F07EFC011CFE20800510F065FC3A
:1017D000256800245746B246061C200010F0C3FCC2
:1017E000311C10F06EFC2300013401C5A4B29F42ED
:1017F000F3D1012104209B4607F080F95646041ED0
:10180000099000D1D8E0049D059829000BAA0AF0A0
:1018100085FE0B9F2760002D0CD0059A049B9446F3
:1018200014009D0065442068391C10F030FC01C490
:10183000AC42F8D10121F00007F060F9039B0400ED
:1018400001339E4200D0BEE0049B994549D94B46E6
:101850000121980007F052F9051E00D1C1E0049F54
:101860000599BE00320010F0CDFD4B46DA1B002179
:101870009200A81910F0C0FD4B46202B18D0402B29
:1018800016D0802B14D080235B00994510D0802384
:101890009B0099450CD08023DB00994508D080231C
:1018A0001B01994504D080235B01994500D09AE043
:1018B000280007F027F9504D86E018009AB2012160
:1018C0008000079207F01AF9021E089000D062E724
:1018D0004A4D28000DB0F0BCBB46B246A946A04612
:1018E000F0BD4B46464A203B1342E4D04B46454AA6
:1018F000803B1342DFD080239B009945DBD08023BF
:10190000DB009945D7D080231B019945D3D0802394
:1019100000265B019945CED00BAB0093002200233B
:101920000021484608F09AFB051E58D02200059970
:1019300008F058FC280007F0E5F8002E4BD1079876
:1019400010F016FC069910F0BCFB011CFE2080056F
:1019500010F0A3FB43461B688146984600232500F0
:1019600000269A46039409E0011C10F093FB4346BD
:10197000286001C398460136B6B208355346286838
:101980006C68011C6B6010F09CFB211C071C201C68
:1019900010F097FB011C381C10F07CFB494610F03E
:1019A00090FB2860B345DFD14346039C18602000BC
:1019B00007F0A8F800250AE0104D089807F0A2F8F3
:1019C00087E7114D85E7114D200007F09BF8099836
:1019D00007F098F8F1E7059807F094F8AFE7002EC4
:1019E00004D1064DF0E70126059595E7059807F027
:1019F00089F8024DE8E7C04608FCFFFF16FCFFFF30
:101A0000DFFF00007FFF000014FCFFFF11FCFFFF61
:101A1000F0B5DE464E4657464546E0B5B3B099466A
:101A20003CAB1B781E909B463DAB1B7804911C92EF
:101A3000002B79D11C9D9C496C6920001DF0D2F9C6
:101A4000002831D1EB69002B01D001F0F3F95B469E
:101A5000002B01D001F0D8F9FC211C9B89054846D8
:101A60009D695E6A10F02DFB291C041C10F060FBC0
:101A7000002801D001F06EF9300010F074FB291C31
:101A800010F01FFB494610F008FB10F0CBFB874B12
:101A900000220FF0EFF80FF0C9F90300013317939C
:101AA00001232990169314E1200081491DF09AF931
:101AB000002800D0FEE0EB69002B01D001F055F9C1
:101AC0005B46002B01D001F0D7F9FC211C9B890556
:101AD00048469E695C6A10F0F4FA051C011C301C33
:101AE00010F03CFB002801D101F009FA200010F0B1
:101AF0003AFB291C10F0E5FA494610F0CEFA10F036
:101B000091FB6A4B00220FF0ACF80FF08FF9431CE9
:101B10001693013001D101231693169A6408631CB1
:101B200017939B1A2993D4E0476881683C004C4383
:101B3000631E98460025002C01D001F08CF91E9BF5
:101B40001F241A6801260392012292464A460592F2
:101B50005A46BB461F00069253469A00039B5046C6
:101B6000D35899463B005F46AB464D4699460AE03E
:101B70003700AF401D683D431D6082454BD04B464A
:101B800099685F68151C0EF025FE039A7943944608
:101B90000818830063441A681D602300C1170B40B6
:101BA000CF0E1B185B11C5199B0025405B44ED1B34
:101BB000DED537002035AF403D00043B1F683D4374
:101BC0001D608245DBD10A005D464146CC4609E0F6
:101BD000370097401B683B4216D0431C81421FD9F7
:101BE0001800DA1723001340D70E1B185B11C21917
:101BF0009B002240EB18D21BEAD5370020329740D9
:101C0000043B1B683B42E8D167467B6888469B469D
:101C10008246B968A0E70A005D46CC464146E1E746
:101C200063461900059A1E939146069A5B6893468F
:101C30008A688B604A60002D02D0280006F062FF9F
:101C4000FE211C9B8905DC68201C10F069FA002825
:101C500000D0EFE680211E98490243688B4201D3F1
:101C600001F03FF982688A4201D301F03AF92CA9C8
:101C700092B24A819BB212040B81016813433093E4
:101C800030AB2F9131911A00211C2EA80AF0F6FBDF
:101C9000041E00D1CEE6200033B0F0BCBB46B246F5
:101CA000A946A046F0BDC0469C1002100000E03FCF
:101CB000A01002105B46002B01D001F062F81C9BC3
:101CC0005A6AD30F9B185B105A1C29930123179251
:101CD0001693049B1E681E9B5C68002CDBD0299B1E
:101CE00004969B002493169B2D969A002292179A95
:101CF000D31A9B002593002391001D9330AB2891AC
:101D000006931E9A936812689E0003931D9B73436B
:101D1000D31800220F9309932392002B00D183E262
:101D20000022049B21920B93002B00D174E2069AAF
:101D3000039909980AF012FC309B0B9A002113605A
:101D4000049B1F68381C10F0EBF9002800D0B6E1A6
:101D5000391C381C10F0B5F9391C10F0B2F9011C0F
:101D6000041C381C10F0ADF9039B8146002B00D1F8
:101D7000ACE10F9BA3469A46B24400269846371C16
:101D8000434620CB291C281C984610F09AF9291CA0
:101D900010F097F9011C041C381C10F07BF9211C71
:101DA000071C281C10F08DF9011C301C10F072F972
:101DB000061CC245E4D15C46039810F0D4F9011C1E
:101DC0008046381C10F069F9211C10F066F9049C5B
:101DD0004146230060600C33301C0A9310F05DF91B
:101DE000494610F05AF9DF4910F051F91C9BA060E8
:101DF0005A6A05929B88042B00D129E235231C9A4C
:101E0000D35C059A11935308049301330E93039BFB
:101E10009A4200D989E10F9C049BA4469B0063442D
:101E200020931B680021249A0A981F9310F0E4FA6B
:101E3000039B002B00DC20E1012313930023089473
:101E40001593059A229993B21A935B080133109364
:101E500013041A0C93465A0C9B0B14930E9BD946F1
:101E60009F00089B12929C46002367449B46BA46FB
:101E700001321892289A6144624419911B92059E7E
:101E8000039A33005B4407939A4201D25B46D61A09
:101E90000E9B109A934200D041E1049B129A934208
:101EA00000D03FE10121149806F028FE051E00D164
:101EB0002DE14E4500D94E465B4699000F9BB70079
:101EC0009C463A006144280010F09CFA4B469A1B4D
:101ED00000219200E81910F08FFA4B46202B00D118
:101EE000F7E0402B00D1F4E0802B00D1F1E080231B
:101EF0005B00994500D1ECE080239B00994500D11F
:101F0000E7E08023DB00994500D1E2E080231B015C
:101F1000994500D1DDE080235B01994500D1D8E0EF
:101F2000189BD80006F0E6FD8046002801D100F09D
:101F3000ADFF069B0022009300210023484608F0D5
:101F40008DF8041E01D100F0BFFF4246290008F0C1
:101F500049F95B46002626934B464746C146AB46A9
:101F6000A04634002793386810F05CF905007868C3
:101F70000E0010F057F902000B000EF0A2FE2A002E
:101F80000C900D913300280031000EF09AFE0200F3
:101F90000B000C980D990EF06DFE0EF097FF0021CE
:101FA000051C10F0D3F8002801D100F0FDFD281C1D
:101FB00010F042F9089AA300D050189B013408375A
:101FC000A342D0D84446C8465D46269B20009B4687
:101FD000279B5446994606F095FD404606F092FD33
:101FE000280006F08FFD1A9810F0BDF810F01AF9CD
:101FF00002000B0000205C490EF045FE06000F00B9
:10200000089D2868011C10F05CF810F00BF93200F4
:102010003B000EF056FE0EF059FF01C5AC42F0D168
:10202000169B179AA2460A9F199D93420ED21B9B9C
:1020300098463E682C68311C201C10F08FF8002850
:1020400000D1341C043510C7A845F2D1119B002BD8
:102050005AD0139B002B02D0209B1F9A1A60049B1E
:102060009C460023E3441393039B9B4500DA06E759
:102070001598002801D006F045FD34231C9AD35C46
:10208000002B00D07EE0249B0A9F9C46219B674446
:102090000497002B00D0B7E0099B002B03D0239BB3
:1020A000002B00D0B4E01E9B1D9A5B6801321D928C
:1020B000934200D925E62D9EBD1BAC10EBE52B4BC2
:1020C0002B4C9946039B002B00D052E60026371C70
:1020D00072E62800159D06F015FD002D02D028009F
:1020E00006F010FD234C219B002B01D000F0AEFE2A
:1020F000099B002B00D1CEE5239B002B00D1CAE524
:10210000099806F0FFFCC6E5079B9B46ACE7159DCA
:10211000194C002DE7D0280006F0F4FCE3E7159DEC
:10212000164CF6E7159D164CF3E704210E9806F0C1
:10213000E5FC002108900400249A0A9810F05CF94C
:10214000039B002B01DC00F0F4FD0F9A049B9446E6
:102150009B006344209300231393002315941F9343
:102160006FE6C046000040400000F03FC21601008C
:102170006142A20D08FCFFFF16FCFFFF14FCFFFFED
:1021800011FCFFFF299B002B00D17CE70A9C249BBC
:102190002600294DE718002130680FF0C1FF002804
:1021A00000D035600436B742F5D1069E2068310074
:1021B000400040081EF0C4FE2049051C0FF081FFBE
:1021C0001F490FF064FF011C281C0FF07AFF1D4906
:1021D0000FF060FF011C281C0FF073FF1A490FF06D
:1021E00056FF051C30980FF0C3FF291C0FF052FF5B
:1021F00016490FF066FF01C4A742D7D1219B06966E
:102200000497002B00D147E70B9806F07BFC43E7CF
:10221000099806F077FC46E70121042006F06EFCE1
:1022200001230B90219382E50121300006F066FC2A
:1022300001230990239373E5FFE6DB2EA8A19D3FC0
:10224000F5CA8340FBB3C040E09248409B209A3ED1
:102250009446D30F63445B1001331A001993802313
:102260009B059A4201D300F055FE002A01D100F0EF
:1022700034FD9400200006F03DFC8346220000213E
:1022800010F0BAF85B461D191C9B5B6A0593352359
:102290001C9AD35C059A149353080C930133109342
:1022A000039B9A4201D900F028FD0F9E0C9BB44677
:1022B0009B00634420931B6822000021584626930C
:1022C00010F09AF8039B002B00DC32E101231593F8
:1022D0000023B2461193059A5E4693B21F935B08A2
:1022E0000133129313041A0C08925A0C9B0B189387
:1022F000109B13929B0053449846199B01321A92EB
:102300009B0000229946C34607922795059C079A91
:1023100023009446039963440E93994200D28C1A89
:10232000109B129A934201D000F0DDFC0C9B139A93
:10233000934201D000F0DCFC0121189806F0DEFB8E
:102340000A90002800D1E3E3089B9C4200D91C00BE
:10235000079BA50099000F9B2A009C460A9B61449D
:102360009846180010F04EF84346089F00213A1B8B
:102370009200581910F040F8202F00D1A6E3089BD6
:10238000402B00D1A2E3802B00D19FE31A008023D1
:102390005B009A4200D199E380239B009A4200D1CE
:1023A00094E38023DB009A4200D18FE380231B015A
:1023B0009A4200D18AE380235B019A4200D185E3EF
:1023C0001A9BD80006F096FB1B90002801D100F064
:1023D0008BFD069B0022009300210023089807F044
:1023E0003DFE071E01D100F05DFD00241B9D0A99F2
:1023F0002A0007F0F7FE4B46A046A9462A962B97DF
:102400002C934B4618680FF00DFF4B46060058689A
:102410000F000FF007FF320004000D003B003000FA
:1024200039000EF04EFC220006000F002B002000A9
:1024300029000EF046FC02000B00300039000EF0BF
:1024400019FC0EF043FD0021041C0FF07FFE002854
:1024500001D100F078FC201C0FF0EEFE43465246FE
:102460009B00D05001239C460733E0449C461A9BB6
:10247000E1444345C5D82B9F2C9B380099462A9EA2
:1024800006F040FB1B9806F03DFB0A9806F03AFB6D
:102490001F980FF068FE0FF0C5FE02000B00002031
:1024A000B4490EF0F0FBB04604000D0057465E46FE
:1024B0003868011C0FF005FE0FF0B4FE22002B005F
:1024C0000EF0FFFB0EF002FD01C7B742F0D1199BE1
:1024D000B34600244646002B0DD0534637591D59AC
:1024E000391C281C0FF03AFE002800D13D1C355144
:1024F00004344C45F1D1149B002B00D1F8E2159B1C
:10250000002B02D0209B269A1A600C9A079B9446B7
:102510006344079300231593079B039A934200DAC1
:10252000F4E6B346279D119B002B02D0180006F05D
:10253000E9FA5B46EC1AA510012104200C940A95D7
:1025400006F0DCFA29000890069A584609F0E6FFE2
:102550000323290019400391AF08042C00D8E2E2BC
:10256000002F00D14FE300245E46201C3C00316860
:102570000FF090FD71680FF08DFDB1680FF08AFDCE
:10258000013CF1680FF086FD1036002CEFD13B01C5
:10259000041C0A989A46D8460FF0E5FD039BD044E8
:1025A0000590002B00D1E0E24646201C02CE0FF041
:1025B00071FD039A031C012A00D1E2E231680FF099
:1025C00069FD039B022B00D111E3434699680FF08C
:1025D00061FD05990FF061FD3B0180469A46002F91
:1025E00001D100F003FC45465C460026B846206851
:1025F000291C0FF04CFD011C0FF063FD311C0FF086
:1026000049FD291C061C60680FF041FD011C0FF0FC
:1026100058FD311C0FF03EFD291C061CA0680FF070
:1026200036FD011C0FF04DFD311C0FF033FD291C50
:10263000061CE0680FF02BFD011C0FF042FD311C61
:102640000FF028FD013F061C1034002FCFD1474664
:10265000A846039DDA44002D2AD05446414601CCB9
:102660000FF015FD011C0FF02CFD011C301C0FF0AC
:1026700011FD061C012D1BD0414620680FF007FDFF
:10268000011C0FF01EFD011C301C0FF003FD039B0D
:10269000061C022B0CD05346414698680FF0F7FCFD
:1026A000011C0FF00EFD011C301C0FF0F3FC061C8A
:1026B0000599301C0FF0F1FC041C011C0FF001FD0A
:1026C000211C0FF0FEFC309B051C9846002F00D10A
:1026D00033E20023A9465C4645469A46B846206840
:1026E000291C0FF0D4FC061C011C0FF0EAFC311C65
:1026F0000FF0E7FC51460FF0CDFC291C82466068C4
:102700000FF0C5FC061C011C0FF0DBFC311C0FF0A8
:10271000D8FC51460FF0BEFC291C8246A0680FF081
:10272000B6FC061C011C0FF0CCFC311C0FF0C9FCE0
:1027300051460FF0AFFC291C8246E0680FF0A7FC61
:10274000061C011C0FF0BDFC311C0FF0BAFC5146F9
:102750000FF0A0FC013F82461034002FBFD1474646
:10276000A8464D463B015B440793039B002B3AD0A0
:1027700002E0C0460000F03F079E414630680FF07F
:1027800086FC041C011C0FF09CFC211C0FF099FC22
:10279000011C50460FF07EFC039B8246012B22D089
:1027A000414670680FF073FC041C011C0FF089FC9B
:1027B000211C0FF086FC011C50460FF06BFC039BA4
:1027C0008246022B0FD04146B0680FF060FC041C1B
:1027D000011C0FF076FC211C0FF073FC011C50460D
:1027E0000FF058FC82460021281C0FF0AFFC002897
:1027F00000D189E1281C0FF01FFD0021041C0FF0FF
:102800008FFC002800D07FE1059950460FF045FC71
:10281000211C0FF042FC089B069A1860049B0A9941
:10282000D860584609F07AFE0C9B042B00D862E170
:10283000002F00D11AE25C463E00002021680FF014
:1028400029FC61680FF026FCA1680FF023FC013E13
:10285000E1680FF01FFC1034002EEFD1039B002B1A
:1028600000D17DE1079C02CC0FF014FC039A031CFD
:10287000012A00D17FE121680FF00CFC039B022BA1
:1028800000D19EE1079B99680FF004FC05990FF0B9
:1028900004FC061C002F00D19AE13D0000235C4699
:1028A000A8461F1C2068311C0FF0F1FB011C0FF023
:1028B00008FC391C0FF0EEFB311C071C60680FF0A0
:1028C000E6FB011C0FF0FDFB391C0FF0E3FB311C94
:1028D000071CA0680FF0DBFB011C0FF0F2FB391C9A
:1028E0000FF0D8FB311C071CE0680FF0D0FB011C77
:1028F0000FF0E7FB391C0FF0CDFB013D071C103436
:10290000002DCFD143461C011F00039B80465C4431
:10291000002B00D116E1230001CB311C99460FF0AA
:10292000B6FB011C0FF0CDFB41460FF0B3FB039B40
:102930008046012B00D12AE14B46311C18680FF06C
:10294000A6FB011C0FF0BDFB41460FF0A3FB039B50
:102950008046022B00D154E1311CA0680FF097FB98
:10296000011C0FF0AEFB41460FF094FB05990FF0F0
:1029700094FB011C0FF0A5FB309B81469846002F6D
:1029800000D112E25C46002645462068291C0FF063
:102990007EFB011C0FF095FB011C0FF092FB311C1C
:1029A0000FF078FB291C061C60680FF070FB011CFF
:1029B0000FF087FB011C0FF084FB311C0FF06AFB4A
:1029C000291C061CA0680FF062FB011C0FF079FBAC
:1029D000011C0FF076FB311C0FF05CFB291C061C60
:1029E000E0680FF054FB011C0FF06BFB011C0FF0B3
:1029F00068FB311C0FF04EFB013F061C1034002F0A
:102A0000C3D1A846039D002D33D0079C414601CC7D
:102A10000FF03DFB011C0FF054FB011C0FF051FBAC
:102A2000011C301C0FF036FB061C012D21D0414645
:102A300020680FF02CFB011C0FF043FB011C0FF072
:102A400040FB011C301C0FF025FB039B061C022BD6
:102A50000FD0079B414698680FF019FB011C0FF03F
:102A600030FB011C0FF02DFB011C301C0FF012FB82
:102A7000061C002148460FF053FB002846D105995B
:102A8000301C0FF00AFB49460FF007FBE3490FF03B
:102A9000FEFA089B16991860049B1A0014321861FC
:102AA0000A921798229A00235A44814206D2D1589A
:102AB0000A98C150259904339942F8D1089806F034
:102AC00021F8584606F01EF8FFF7D7FA119B0A982E
:102AD000994606F017F84B46B346002B02D04846FD
:102AE00006F010F8CE4C584606F00CF8FFF7FBFA4B
:102AF0000E9B079310E5309B984600239946002FC4
:102B000000D03FE71E1C7DE7002084E6C548C0E7F3
:102B1000119BB3469946C44C4B46002BE3D0484624
:102B200005F0F0FFDFE70A980FF01DFB309B002552
:102B300098460590002F00D0CBE55B460793002315
:102B40009A4612E605990FF0A8FA011C0FF0B9FA9F
:102B5000309B814698460026002F00D012E788E778
:102B600005990FF09AFA061C97E6011C201C0FF03D
:102B700094FA804637E50599181C0FF08EFA061C6A
:102B80008BE60599181C0FF088FA80462BE505990D
:102B90000FF083FA011C0FF094FA309B814698469F
:102BA000002F00D0EEE688E00021089AA300D15063
:102BB000189B01340837A34201D9FFF7D4F9FFF776
:102BC00001FA05990FF069FA061C002F00D064E69F
:102BD0005B4601CB311C99460FF059FA011C0FF0EE
:102BE00070FA00210FF056FA5C468046A4E605997B
:102BF0000FF053FA8046002F00D1F7E03B019A46D0
:102C0000F1E40599B3E60A980FF0ADFA039B05903D
:102C1000002B00D1D9E05E46002101CE0FF03AFA38
:102C2000039BD846012B00D0C8E4059C211C0FF063
:102C300034FA5B46011C18680FF029FA011C0FF0EA
:102C400040FA00210FF026FA211C0FF026FA041C8E
:102C5000011C0FF036FA211C0FF033FA309B051CD3
:102C600098465B46079300239A4685E5039B002B15
:102C700000D190E0079C002101CC0FF00BFA039AE1
:102C8000031C012A00D0F6E5059C181C211C0FF03E
:102C900004FA5B46011C18680FF0F9F9011C0FF0EB
:102CA00010FA00210FF0F6F9211C0FF0F6F9011CC3
:102CB0000FF007FA309B81469846079B41461868FB
:102CC0000FF0E5F9011C0FF0FCF9011C0FF0F9F908
:102CD00000210FF0DFF9061CCBE6002300249B4601
:102CE0000025FFF7D4FA119BB34699464F4C13E7E2
:102CF000119BB34699464E4C0EE70421109805F0FF
:102D0000FDFE220011900600002158460FF074FBD2
:102D1000039B002B00DC06E40F9A0C9B94469B005F
:102D200063442093002315930023B2462693FFF7B4
:102D3000D2FA089B002B01D1FFF79FF9180005F08C
:102D4000E1FEFFF79AF94346524600219B00D1501D
:102D5000FFF788FB30000FF006FA211C0FF0B1F9E5
:102D600049460FF09AF9FEF790FE4946AA691E9867
:102D7000DBB2FDF7C7FD041E01D1FEF7A1FEFEF791
:102D80008AFF1E98FEF710FB002801D1FEF797FF7F
:102D90000400FEF780FF059900200FF07EF9011C6A
:102DA0000FF08FF90026814663E6079C191C01CCC1
:102DB0000FF06DF9011C0FF084F9011C0FF081F97F
:102DC00000210FF067F9061C31E6011C00200FF00E
:102DD00064F9041C011C0FF074F9211C0FF071F947
:102DE0005B4607930023051C9A46FCE45C4641467B
:102DF00001CC0FF04CF9011C0FF063F900210FF02A
:102E000049F9DA46061C37E41E98FEF7CDFA002889
:102E100001D1FEF721FE0400FEF73DFF0000404017
:102E200008FCFFFF000040C016FCFFFF14FCFFFF82
:102E300011FCFFFF4946AA691E98DBB2FDF7DEFBD5
:102E4000041E01D1FEF703FEFEF725FF0B9805F0E7
:102E500059FEFFF74DF91F346409A400200005F066
:102E600049FE051E03D0220000210FF0C5FA1E9B6B
:102E700099685F68FEF763FE1E98FEF795FA0028D2
:102E800001D1FEF722FE0400FEF705FF2800159D84
:102E900005F038FE002D02D0280005F033FE1F4C4F
:102EA000FFF721F9119B1B9F9946380005F02AFE78
:102EB0000A9805F027FE4B46B346002B02D0484641
:102EC00005F020FE154C0EE62C004046159D05F041
:102ED00019FE200005F016FE002DDDD10F4CFFF786
:102EE00002F90F4CFEF7D7FE119B0A98994605F0A0
:102EF00009FE4B46B346002BE1D1084CF3E5200018
:102F00000FF031F9311C0FF0DCF849460FF0C5F82D
:102F1000FEF7F5FD034812F0F1F9C04616FCFFFF7D
:102F20000CFCFFFFA8100210F8B582680D00436882
:102F3000097804005A43032909D0092942D00129FC
:102F40002FD03A4805F0B2FD0D204042F8BDA969E6
:102F500091425BD10026002908D120E0FF20B8551E
:102F60006268A36801365343B34218D92268B3009C
:102F70009858E9680FF091F80FF0A6F90FF01AF9D8
:102F80002B696F68C018FF28E8DCC343DB171840C3
:102F9000B8556268A36801365343B342E6D80020AF
:102FA000D4E7AB699908914236D10029F7D00023C4
:102FB000046868688900E258C25004339942FAD123
:102FC0000020C3E7A969914220D10026002908D139
:102FD000E5E77F20B8556268A36801365343B342E2
:102FE000DDD92268B3009858E9680FF056F80FF061
:102FF0006BF90FF0DFF82B696F68C0187F28E8DCE9
:1030000003008033E6DA80204042E3E7084805F019
:103010004DFD1820404299E70321D8170140C918F7
:103020000348891005F042FDF3E7C0462011021065
:10303000DC100210F0B557464E464546DE46E0B578
:1030400085B00EAB10CB05001B780F0099463C23D2
:10305000C35C002B1BD04423C156C35C062B63D832
:10306000012354228B401A4234D12C3A1A4200D107
:1030700083E0397809292DD002230A009A43012AD6
:1030800028D0594805F012FD0A2040421BE06E236B
:10309000C35A4E6898460B78092B1ED04346002B26
:1030A00010D08423C1584B460834002B40D1002255
:1030B0004746F058CD58013225606060043308342B
:1030C000BA42F6D3002005B0F0BCBB46B246A946D2
:1030D000A046F0BD15204042F5E708690FF048F81A
:1030E000FB689A464346002BECD08423EF584B46AE
:1030F0000834002B47D10025B9465746B246061C76
:10310000534658570FF034F8311C0EF0C0FF391CED
:103110000EF0D7FF4A46AB00D358013523606060FC
:103120000834A845ECD8CDE7304805F0BFFCABE744
:103130002F4B002701932F4BB146029384239B46CC
:10314000163B9A4680464B46BD005E594959019848
:1031500005F0ACFC301C05F0C1FC029805F0A6FCA3
:1031600043465A46995852469B5A4A59013722605B
:10317000666008349F42E6D3A4E70129D4D11E48F3
:1031800005F094FC80E700239846B346A946260044
:103190004446174B03900193164B02935B46185716
:1031A0000EF0E6FF03990EF072FF51460EF089FF14
:1031B000A300F958051C0198984605F077FC281CD7
:1031C00005F08CFC029805F071FC4B4684229F5858
:1031D000163A9B5A4246BA58013432607560083636
:1031E0009C42DBD36EE7C0468C110210C411021062
:1031F000F8110210182A021044110210F0B5DE4630
:1032000057464E4645461C00E0B5C7B050AB1B784C
:1032100015009A462369060099468B4636AF07F09B
:10322000A5F826AB200001939846009716AB06AA96
:1032300004A9FDF719FD041E07D0200047B0F0BC1B
:10324000BB46B246A946A046F0BD584606A9FFF7C0
:103250006BFE041EF1D1049B059C4A460293039425
:103260009368984700283AD107F080F8029B039CA6
:10327000C01AA141F0239B46AB445B46FA2218607A
:103280005960920000230DF0CBFAE023E85053463A
:103290000100002B1FD153463A00019330004346F2
:1032A000009516A9FFF7C6FE4B460400DB680F48E1
:1032B0009847002C09D007F059F8029A039B801A0E
:1032C00099415B4618605960B7E705F0EDFB831C38
:1032D000F1D10400EFE7064805F0E8FBDBE7F02357
:1032E00003249B466442AB44E5E7C0463503001027
:1032F00000120210F0B5DE4657464E464546E0B590
:103300001C00DDB0109280461000802266AB1B7856
:103310005200119323698B4600219A460FF06CF8F6
:103320003CAB01934CAB009320002CAB1CAA1AA918
:10333000FDF79AFC061E00D02EE1202214AB9B184C
:103340001B78092B02D0032B00D0D7E207F00EF830
:10335000434600221D691D9B91460E900F910893D4
:10336000002B00D1BFE243469B6B20989C680EF077
:10337000FFFE43465B6D03909B68E2490493A3689C
:10338000E0680D931BF02EFD5A46431E98411269CA
:1033900043001F9E01330A92002A00D1A3E00022BD
:1033A00009934B460B921293524643460027D94647
:1033B00013951492159380230A9ADB0005929A4282
:1033C00000D905930D98059C01216043800005F00C
:1033D00095FB0690002800D130E24B460B9A9B6883
:1033E000199218941790002B00D18AE24B46484658
:1033F000DC6818AA17AB19A9A0470A9B002B58D064
:10340000FF239B464B460025B8460C93371C069A73
:10341000AB00D0580EF000FF5A46030C04001A40CF
:103420005B46060A1E401C40434601330793089B37
:10343000914643449A46099BB349381C032B00D15B
:10344000F3E00EF06DFE002800D1ADE0C32103983B
:1034500009060EF065FE002800D1A5E0049B002BB4
:1034600000D01EE14B46A9485843A94B7343C018EE
:1034700023011B1B1B011B195A01D31AC01800146E
:103480000EF076FE8621C9050EF001FE0EF092FECA
:103490007F2800DCCBE17F2040B253461870079BA9
:1034A0009846059B0135AB42B1D80C9B3E1C994612
:1034B00047460A9B059A06989B1A0A9305F022FB39
:1034C0008022D20094460B9B63441A000B934B4618
:1034D0001B699A4200D26EE7149B139D9A46129B79
:1034E0009946159B984605F0DFFA023000D1F7E1C6
:1034F00006F03CFF0E9B0F9CC01AA141109CFA22C3
:103500002300E83318605960920000230DF088F919
:10351000DC23E050119B0100002B00D0A2E106F05B
:1035200025FF534604000D009B681A941B9598478D
:10353000002800D0DFE106F019FF109E001BA94112
:103540003700FA22F03700233860796092000DF0DE
:1035500067F9E023F050119B40460193109B4CAA61
:1035600000932CA93CABFFF765FD53460600DB68D2
:1035700068489847002E00D068E105F095FA0230BF
:1035800000D1ADE106F0F2FE001BA941089B3860B6
:103590007960002B00D05DE130005DB0F0BCBB462F
:1035A000B246A946A046F0BD48460EF0DCFD804676
:1035B00030000EF0D8FD061C20000EF0D4FD049B58
:1035C000041C002B79D1404653490EF066FD524948
:1035D0008046301C0EF061FD4F49061C201C0EF089
:1035E0005CFD041C40464D490EF06BFD4C49804685
:1035F000301C0EF066FD011C40460EF04BFD4949A3
:10360000061C201C0EF05DFD011C301C0EF042FD5E
:10361000391C0EF042FD0EF057FE011C03980EF00F
:1036200039FD0EF0C7FD40B237E70EF079FD0028F6
:1036300000D185E0C321039809060EF071FD002832
:1036400000D17DE0049B4846002B00D0BFE00EF087
:103650008FFD8621C9050EF01AFD0EF0ABFD43B2B9
:10366000300099460EF084FD8621C9050EF00FFD4D
:103670000EF0A0FD46B220000EF07AFD8621C905AD
:103680000EF005FD0EF096FD40B253464A461A7004
:10369000089B079A9E545346987003239C46E04427
:1036A000FFE648460EF05FFD804630000EF05BFD01
:1036B000061C20000EF057FD041C049B022B91D128
:1036C000404615490EF0E9FC17490EF0E0FC174999
:1036D0000EF0E3FC10498046301C0EF0DEFC14496D
:1036E0000EF0D5FC13490EF0D8FC0B49061C201C2B
:1036F0000EF0D3FC10490EF0CAFC10490EF0CDFCC0
:10370000041C6FE7401002108180803B8B4C00004E
:10371000459600003503001000007F438716993E50
:10372000A245163FD578E93DEC51F83EFA7E6A3E57
:10373000D578E93E4260653E3BDFCF3E6666663E39
:1037400048460EF010FD814630000EF00CFD061CC0
:1037500020000EF008FD049B041C002B42D14846BB
:1037600069490EF09AFC68498146301C0EF095FCC0
:103770006549061C201C0EF090FC041C391C4846B0
:103780000EF08BFC0EF0A0FD011C03980EF082FCE5
:103790000EF010FD391C43B2301C99460EF07DFC32
:1037A0000EF092FD011C03980EF074FC0EF002FD69
:1037B000391C46B2201C0EF070FC0EF085FD011C79
:1037C00003980EF067FC0EF0F5FC40B25DE70EF0DA
:1037D000CAFC814630000EF0C6FC061C20000EF02C
:1037E000C2FC041C049B022BC8D1484646490EF07B
:1037F00054FC46490EF04BFC45490EF04EFC424944
:103800008146301C0EF049FC42490EF040FC424912
:103810000EF043FC3C49061C201C0EF03EFC3F49C8
:103820000EF035FC3E490EF038FC041CA6E7030000
:10383000803300DB30E6802040422DE6129B0526D7
:1038400038483949994605F031F97642089B002BF2
:1038500000D1A1E64B46002B00D19DE6089805F06B
:1038600051F999E6314805F021F9002D15D0089B52
:103870002F4E9C461C0065440020209B205601349E
:10388000C01A0EF075FC1F990EF01BFC05F026F90E
:10389000300005F00BF9AC42EED1264805F006F9F0
:1038A00006F064FD534604000D009B681A941B95B6
:1038B000984700281FD106F059FD109E001BA94112
:1038C0003700FA22F03700233860796092000CF05C
:1038D000A7FFE0230100F050174805F0E7F83AE6AB
:1038E00002267642B2E70121280005F007F90123FC
:1038F0000890994637E503267642A7E709267642DF
:103900004AE611F02FFDC04600007F43EC51F83E1F
:10391000FA7E6A3ED578E93E4260653E3BDFCF3EA7
:103920006666663E3412021016FCFFFF201202107B
:1039300028480210182A021000120210F0B5DE46C4
:1039400057464E4645460400E0B59A46436D8B46C1
:1039500058681968A36D9146A3B0022B00D1E7E027
:103960000B2B05D88A221201DA40D20700D5DFE0FE
:1039700080220021520048460EF03EFD25690121BB
:10398000A80005F0BBF82021012308AA52181370E3
:103990000E930D900F9506F0E9FC636B069007916E
:1039A000002B00D185E0A04B002704939F4B0025FE
:1039B00005934B4608935346099303E0636B013527
:1039C0009D4272D2AA00A36B521992009B181A68EA
:1039D0001E6990465A6803929A689146DA683B00DD
:1039E000924622694744974200D9D7E00D989B0040
:1039F000C0180023002800D1C9E0302108AA5218BD
:103A0000137001231293434613935B461993534655
:103A10001A931DAB002111900C22180098461B969A
:103A20001C940EF0E9FC0023A169584620938E42B5
:103A300018D000690CF0CEFE46430021082216A8DB
:103A400021960EF0D9FC19AB15930BAB1A0015AEED
:103A500003CE03C2424603CB03C24046049B1F93DE
:103A6000059B20934A46236B039E11A9B04700286B
:103A700000D099E005F018F8831C00D1AEE01F9B40
:103A8000002B03D003224146404698471198002856
:103A900094D0302208AB9B181B78002B8ED005F0F9
:103AA00031F8636B01359D428CD3089B9946099B85
:103AB0009A4606F05BFC069A079B801A99414B4692
:103AC000FA22E83318605960920000230CF0A8FE37
:103AD000DC234A46D05053460100002B00D088E03A
:103AE000236D002B00D17BE00025C846564604E03C
:103AF000236D01359D4200D372E06B00626D5B194E
:103B00009B00D218536800961768200042460DA902
:103B1000B8470028ECD006000D9800282FD02022AE
:103B200008AB9B181B78002B29D004F0EBFF26E094
:103B30006C23E35C002B00D01AE73D4B994200D088
:103B400016E7437B002B00D112E7636B012B00D0FB
:103B50000EE7A26B374B52689A4200D008E78022EA
:103B60000021520048460EF047FC5246636D59460C
:103B70005B68200000924A46FFF7BCFB060030005D
:103B800023B0F0BCBB46B246A946A046F0BD4346B2
:103B90000121980004F0B2FF01232EE705262648F4
:103BA00004F084FF7642B7E7244B01000526180095
:103BB00004F07CFF76421F9B002B03D0032241467A
:103BC0004046984711980028A6D0302208AB9B1891
:103BD0001B78002BA0D004F095FF9DE70600EAE7D4
:103BE00004F062FF831C5A42534106005B421E40B0
:103BF00092E7134804F05AFF0F9B002B0DD00025CD
:103C0000104E0D9BAA00D05804F068FF300004F05D
:103C10004DFF0F9B01359D42F3D30B4804F046FF47
:103C20000A4804F043FF5BE7450C0010450500100F
:103C3000FD310010610300105C12021034120210FA
:103C40002012021028480210182A021088120210AE
:103C5000F0B5DE46454657464E46E0B5CC4C00250D
:103C6000A5440EF05DFECB4B0B93CB4B0C9311F0A8
:103C7000F3F90BA811F00CFA402000210AF070F9BA
:103C8000C64BC7491800984611F00CF903210420CF
:103C900009F0BCFA0321052009F0B8FA002201213D
:103CA000042009F0CBFA00220121052009F0C6FA10
:103CB0002A23BC4C1C2123802200283B404600952F
:103CC00011F01AF987235B0023800D3B22001C2191
:103CD000FF3B4046009511F00FF995235B002380D0
:103CE000293BFF3B22001C214046009511F004F9BE
:103CF00012AB0693AC4B0393AC4B0493AC4B0593C4
:103D0000AC4B0793AC4B0893AC4B099380239B01BE
:103D10009B46AB480AF038F93022002106980EF095
:103D20006BFB12AB1D00069301239A4600239946B4
:103D300006F01CFB00275346A24E039A36184F414B
:103D400000931C210123404611F0D6F84B46220077
:103D500000931C210223404611F036F92378607845
:103D60009B01800818435B46184200D1EAE0C0047A
:103D7000C00C0EF0F8F98C21C9050EF088F9E82185
:103D800089050EF09EF990490EF09BF95346286084
:103D90001C21049A00934046012311F0ADF84B46D4
:103DA000220000931C210223404611F00DF92378D4
:103DB00060789B01800818435B46184200D1B9E047
:103DC000C004C00C0EF0CFF98C21C9050EF05FF9CC
:103DD000E82189050EF075F97B490EF072F953461A
:103DE00068601C21059A00934046012311F084F875
:103DF0004B46220000931C210223404611F0E4F8B8
:103E0000237860789B01800818435B46184200D1F4
:103E10008CE0C004C00C0EF0A6F98C21C9050EF090
:103E200036F9E82189050EF04CF967490EF049F999
:103E3000A86006F09BFA361A8F41300039000AF06C
:103E40008FF80C351EABAB4200D071E70C23082273
:103E5000002141A811930EF0CFFA069B40A9082239
:103E60001EA840930EF0CEFA0DAB1EAA03CA03C3E0
:103E70008022079B00210F93089B520040A81093BB
:103E80000EF0BAFA882209991EA80EF0BBFA002398
:103E900040AA0DA91EA8FFF751FD002862D10BA86A
:103EA00011F04CF9802180AB18000BAA49009A460A
:103EB0000AF070FA439E0021301C0EF04FF9351CB9
:103EC000002800D10025459F281C391C0EF030F930
:103ED000002844D12F1C0025479B381C191C9946EB
:103EE0000EF026F9002837D1B946499F4846391CBB
:103EF0000EF01EF900282DD1371C381C0EF092F957
:103F00000200E0200B00013508A9ED00091849590D
:103F100055462E48009504F0C9FD0F9B002B00D19B
:103F2000F7E60DA9032208009847F2E680B20EF0EA
:103F30001AF976E780B20EF016F9E82189050EF03D
:103F4000C0F849E780B20EF00EF9E82189050EF0BD
:103F5000B8F818E70325D0E74E460225C5E7012546
:103F60003E1CB9E71A4B0100180004F09FFD0F9B9F
:103F7000002B03D00DA90322080098470120C1237C
:103F80009B009D44F0BCBB46B246A946A046F0BD8E
:103F9000FCFCFFFFE707070B050F2D004821002061
:103FA000801A0600E43A002066150210651502101A
:103FB00064150210210C0010450300102424021087
:103FC000B80B000020A10700C3F51C410413021028
:103FD000E0120210F0B5454657464E46DE46E0B5C3
:103FE00003681500426883B098460192D31A2D4A9F
:103FF00007000E000C00DB10934250D0019A904550
:1040000041D01A0041469A18711A8A46934230D814
:10401000002A3CD100220823934691464A462900B3
:10402000524421C921C2B04508D04A46434603CB79
:1040300003C2B342FBD1534608334B44019AB24208
:1040400023D0951B5D1903CC03C3AB42FBD1434680
:10405000002B02D0404604F055FD4B463B605B46CA
:104060007D60BB6003B0F0BCBB46B246A946A0462B
:10407000F0BD0D4B9B46584604F03CFD81460300C5
:10408000CB440833CAE70122BCE71D00DFE78023E9
:104090005B059A4200D3034AD3009B46EBE70348F3
:1040A00011F02CF9FFFFFF0FF8FFFF7F80100210C7
:1040B000F0B54546DE464E465746E0B5ADB01C006D
:1040C00036AB20CB4E681B780990984638AB1B88DE
:1040D0000491039339AB1B7808929B464368B34223
:1040E00000D028E25A463B9B57005B6881687A1CE7
:1040F000002B00D013E2914200D01CE23B9B9B6856
:10410000012B00D017E20498FDF74EF981460028F4
:1041100000D0FCE1012C00D104E2022C00D14EE3DE
:10412000B30001211800984604F0E8FC0E90002826
:1041300000D141E3049B5B689E4200D0E3E300248E
:1041400028AD002E14D0BA46049E2F000E9D2300E9
:10415000B16830684B439B003A00C01808F0FEF984
:10416000289AA300EA50736801349C42EFD3574663
:1041700040460121784304F0C1FC8046002800D16C
:1041800027E3049B5B68002B00D1BAE1039A530834
:10419000591C17938B000C93930014935B46DB0020
:1041A00013935B460A91109159465B00012201333B
:1041B000002900D01A00930015930023069343466C
:1041C00012934B461993049A069B95681268A800AF
:1041D0004343D3180D93002B00D1DBE200221C9344
:1041E0001AAB1A7501231D9300231E950F9301210D
:1041F0000C9804F083FC0590002800D146E3109B46
:104200000A9A934200D0AFE20121149804F076FCA0
:104210008046002800D1A7E2039B9D4200D91D00E3
:10422000AE0032000D9940460EF0ECF83000039CD1
:104230000021621B920040440EF0DEF8202C00D1D9
:1042400089E2039B402B00D185E2802B00D182E2E2
:104250001A0080235B009A4200D17CE280239B00FD
:104260009A4200D177E28023DB009A4200D172E2C9
:1042700080231B019A4200D16DE280235B019A42A8
:1042800000D168E20A9BD80004F034FC07900028B3
:1042900000D160E228AB00939A460022002300215F
:1042A000039805F0DBFE041E00D12FE3079E414674
:1042B000320005F097FF00239946434600270B93F1
:1042C0005B46B846B346119416935B4618680DF0EA
:1042D000A9FF5B46060058680F000DF0A3FF02001F
:1042E0000B000CF0EEFC320004000D003B0030002F
:1042F00039000CF0E6FC02000B00200029000CF055
:10430000B9FC0CF0E3FD0021041C0DF01FFF002898
:1043100000D1C5E2201C0DF08FFF4346059A9B009B
:10432000D05001239C460733E0449C460A9BE3445B
:104330004345CAD80B9B119C9846169B20009B4670
:1043400004F0E0FB079804F0DDFB404604F0DAFBE4
:1043500003980DF008FF011C8020C0050DF09DFEA4
:10436000FE218905051C0DF0DBFE00280FD150460B
:104370000123109A059924AC628042804160238019
:104380000380259152462000291C08F077F801216E
:10439000139804F0B3FB0B90002800D17BE25B463E
:1043A000002B00D145E101210C9804F0A7FB0790F8
:1043B000002800D1FDE1FE20089980050DF06DFE7A
:1043C000011C0DF067FE011CFE2080050DF065FE4E
:1043D000039B051C5B10984600D1D3E1012B00D153
:1043E00004E25F1E38000DF0BEFE011C281C0DF01B
:1043F00054FE0024A9463D00071C20000DF0B3FE2A
:10440000391C0DF05EFE00210DF044FE079BA60056
:1044100001349851AC42F0D11A004D46D64B43447A
:104420009B009D505B469C005C440121E00004F031
:1044300065FB1190002800D1A4E1179B002B00D14F
:1044400056E2059A11688946012B00D150E2161DEB
:10445000002216925A4661004F4601249B4618914D
:104460001A922AE07368281C191C98460DF076FEF3
:1044700000282BD0391C281C0DF009FE4146071CD2
:10448000281C0DF004FE011C381C0DF003FE002159
:104490000DF064FE002819D048460DF064FE169F0A
:1044A000119BBD005851189A7B1C9BB216939A42DF
:1044B00044D037680436A34540D03568391C281CE1
:1044C000A14601340DF04AFE0028CBD12F1CF1E7A4
:1044D00043461D00129B04003000984604F012FB76
:1044E000A146280004F00EFB079804F00BFB0B9884
:1044F00004F008FB059804F005FB0F9B002B00D08F
:1045000078E1404604F0FEFA0E9804F0FBFA4846C3
:104510002DB0F0BCBB46B246A946A046F0BD013B5B
:10452000D218E8E54346089904982A1CFCF766F877
:10453000002800D1F4E5914B9946E8E71A9B002248
:104540009B46002328922993002352469360169B92
:10455000002B00D1D3E10022002700260025904641
:10456000994624AC0CE03300220003CA03C31E00AA
:1045700053460135EDB25E60A94521DD53469F6883
:10458000119AAB0098580DF047FE079B80001B580E
:104590002360059B19583A9861600DF0DFFD0028F3
:1045A00002D0434623606360B742DCD1013531005D
:1045B00022005046EDB2FFF70DFD299E4D45DDDB93
:1045C000289BF51A1693EF10B34200D016E1BB45B5
:1045D00000D859E1310000255646B3682560656072
:1045E000994200D1F8E00B00220003CA03C301374F
:1045F0007360BB4500D9F7E0289BB2461A001693BA
:1046000000215C460B9B106801311860506808322D
:10461000586008338C42F6D8169BA346002B02D074
:10462000180004F06FFA119804F06CFA079804F07F
:1046300069FA0C9C0121200004F060FA01270A9D10
:1046400020AA914607902090177321972295002861
:1046500000D12BE12000012104F050FA24AC249079
:104660008046277325972695002800D128E1039BD3
:10467000220000934946089B1CA8FDF745F8002836
:1046800000D028E13B9A01215268551EA8001192E2
:1046900004F034FA52462890061E1773556097604E
:1046A00000D112E1089B21000093484653463B9AF3
:1046B000FCF75CFF002800D00AE7099A0699936886
:1046C00017684B430E9A9B00FF188B00D3583B6032
:1046D0005B46002B0DD000215C460B9A3B1D1068F9
:1046E0000131186050680832586008338C42F6D89F
:1046F000A346002D10D0204B119D9C46159B654470
:104700009C460024AD00674430591D490DF0C5FC9E
:1047100038510434A542F7D1300004F0F3F9404693
:1047200004F0F0F9079804F0EDF90B9804F0EAF9B9
:10473000059804F0E7F90F9B002B18D1049B069A0B
:104740005B6801320692934200D93CE5129B984681
:10475000199B9946D5E64546129B2800984604F0D9
:10476000D1F9064B9946C5E6129B9846F9E70D9894
:1047700004F0C8F9E2E7C046FFFFFF3F14FCFFFF6B
:1047800000002041129B0798984604F0BBF9644B47
:104790009946ACE6012104F0B1F901231AA90D9064
:1047A0001C900B751D931E95002800D19BE00F9364
:1047B0001DE5129B9846EAE75A4B9946A7E6434601
:1047C000089904982A1CFCF79DF8002800D1A7E45A
:1047D000B1E6544B994697E6220030000137FFF7C7
:1047E000F9FBBB4500D807E77168F6E60023079A96
:1047F000136017E60D9804F085F982E638000BF097
:1048000089FF1F22121A1698002331005200804699
:10481000FCF7BEFC802D4EDD43461D008035404632
:104820002900FCF7F3FA78224346944663449946FC
:1048300008235B429846B044B54200D1C7E61897BA
:104840004F461A961B943D00EE68AB686968301CB1
:10485000994608370DF082FC002842D02B002A0030
:10486000083303CA03C32C00083D6968301C0DF0EF
:1048700075FC0028F2D14B4666602360B845E2D152
:10488000189F1A9E1B9CA2E6169AB9E6129B9846A0
:10489000244B994631E6129B9846224B994629E6CD
:1048A00043464946059A9B00D1503AE5129B9846EB
:1048B0001C4B99461BE631001698FCF7A7FA86E6D2
:1048C000129B9846174B99460EE643461D00129BD5
:1048D000144C984604E643461D00129B81469846B8
:1048E000FFE53C00C7E7129B98460E4B994608E649
:1048F0000022002328922993002352469360002629
:10490000002724AC66E6064B9946FDE54546129B1A
:104910000798984604F0F6F8280004F0F3F820E72A
:1049200014FCFFFF16FCFFFFF8B54546DE46574670
:104930004E460C00E0B50500002914D04668036817
:104940002A499846F31A9A109B46AB68881A9B1B13
:104950009B109C420DD8A400220000213000341985
:104960000DF04AFD6C60F0BCBB46B246A946A046BD
:10497000F8BDA04236D3A3189A46944225D85300D6
:104980009A4229D91A4B9946484604F0B3F85B4637
:104990000700A20000218144C0180DF02DFD3A004F
:1049A0004346B04503D002CB02C29E42FBD14346F0
:1049B000002B02D0404604F0A5F853469B002F6020
:1049C000FF184B466F60AB60CDE7802292059342A3
:1049D00006D29B009946D7E7802292059342F8D3EE
:1049E0000B00F6E7034810F089FCC046FFFFFF1FED
:1049F000FCFFFF7F3413021084B070B5109C069248
:104A00000793626823680591119D0490D11A1429B7
:104A100036D9182903D918339A4200D063606A68DE
:104A20002B68D11A142923D9182904D9190018314F
:104A30008A4200D069602268099911600F99196053
:104A4000089951600E995960079991600D99996084
:104A50000699D1600C99D960059911610B9919617A
:104A6000049951610A9A5A6170BC08BC04B0184795
:104A700006238910591A2800FFF756FF2B68DAE73A
:104A8000062389102000591AFFF74EFFC7E7C046DA
:104A900084B070B5289D0591069269682A680793CD
:104AA000299E04908B1A442B2AD9482B03D94832CB
:104AB000914200D06A6072683468131B442B17D986
:104AC000482B04D9230048339A4200D07360002257
:104AD0002E6815AB04AD18681900B050986C043BF3
:104AE000A05004328D42F6D170BC08BC04B0184707
:104AF00012219B103000C91AFFF716FF3468E6E751
:104B000012219B102800C91AFFF70EFFD3E7C046F9
:104B100084B070B5149C069207936268236805916F
:104B2000159D0490D11A1C293ED9202903D9203380
:104B30009A4200D063606A682B68D11A1C292BD96D
:104B4000202904D9190020318A4200D069602268E6
:104B50000B991160139919600A9951601299596063
:104B600009999160119999600899D1601099D9605B
:104B7000079911610F991961069951610E9959614F
:104B8000059991610D9999610499D1610C9ADA6145
:104B900070BC08BC04B0184708238910591A2800B3
:104BA000FFF7C2FE2B68D2E7082389102000591AAC
:104BB000FFF7BAFEBFE7C04684B070B52C9D0591E3
:104BC000069269682A6807932D9E04908B1A4C2BD5
:104BD0002AD9502B03D95032914200D06A607268B2
:104BE0003468131B4C2B17D9502B04D92300503396
:104BF0009A4200D0736000222E6817AB04AD18688B
:104C00001900B050186D043BA05004328D42F6D10B
:104C100070BC08BC04B0184714219B103000C91A9E
:104C2000FFF782FE3468E6E714219B102800C91ABA
:104C3000FFF77AFED3E7C04684B070B51C9C05919F
:104C400006926168226807931D9D04908B1A2C2B95
:104C50004ED9302B03D93032914200D0626069685E
:104C60002B68CA1A2C2A3BD9302A04D91A003032B0
:104C7000914200D06A6022680F9911601B991960F7
:104C80000E9951601A9959600D999160199999601E
:104C90000C99D1601899D9600B9911611799196114
:104CA0000A9951611699596109999161159999610A
:104CB0000899D1611499D961079911621399196200
:104CC00006995162129959620599916211999962F6
:104CD0000499D162109ADA6270BC08BC04B018471B
:104CE0000C2192102800891AFFF71EFE2B68C2E7DC
:104CF0000C219B102000C91AFFF716FEAFE7C04633
:104D000084B070B50C9C0692079362682368059185
:104D10000D9D0490D11A0C292ED9102903D91033D6
:104D20009A4200D063606A682B68D11A0C291BD99B
:104D3000102904D9190010318A4200D06960226814
:104D4000079911600B991960069951600A99596089
:104D500005999160099999600499D160089ADA607F
:104D600070BC08BC04B0184704238910591A2800E5
:104D7000FFF7DAFD2B68E2E7042389102000591AB7
:104D8000FFF7D2FDCFE7C04684B070B5249C0591F3
:104D90000692616822680793259D04908B1A3C2B2C
:104DA0005ED9402B03D94032914200D062606968DD
:104DB0002B68CA1A3C2A4BD9402A04D91A0040321F
:104DC000914200D06A60226813991160239919609A
:104DD00012995160229959601199916021999960B5
:104DE0001099D1602099D9600F9911611F991961AB
:104DF0000E9951611E9959610D9991611D999961A1
:104E00000C99D1611C99D9610B9911621B99196296
:104E10000A9951621A99596209999162199999628C
:104E20000899D1621899D962079911631799196382
:104E30000699516316995963059991631599996378
:104E40000499D163149ADA6370BC08BC04B01847A3
:104E5000102192102800891AFFF766FD2B68B2E72F
:104E600010219B102000C91AFFF75EFD9FE7C04686
:104E700084B070B5189C059106926168226807930A
:104E8000199D04908B1A242B46D9282B03D928323C
:104E9000914200D0626069682B68CA1A242A33D90B
:104EA000282A04D91A002832914200D06A60226868
:104EB0000D991160179919600C99516016995960F4
:104EC0000B999160159999600A99D1601499D960EC
:104ED00009991161139919610899516112995961E0
:104EE00007999161119999610699D1611099D961D8
:104EF000059911620F991962049951620E9A5A62CA
:104F000070BC08BC04B018470A2192102800891A06
:104F1000FFF70AFD2B68CAE70A219B102000C91A77
:104F2000FFF702FDB7E7C04684B070B5209C05913D
:104F30000692616822680793219D04908B1A342B96
:104F400056D9382B03D93832914200D06260696853
:104F50002B68CA1A342A43D9382A04D91A0038329D
:104F6000914200D06A602268119911601F991960FE
:104F7000109951601E9959600F9991601D9999601F
:104F80000E99D1601C99D9600D9911611B99196115
:104F90000C9951611A9959610B999161199999610B
:104FA0000A99D1611899D961099911621799196201
:104FB00008995162169959620799916215999962F7
:104FC0000699D1621499D9620599116313991963ED
:104FD00004995163129A5A6370BC08BC04B0184714
:104FE0000E2192102800891AFFF79EFC2B68BAE761
:104FF0000E219B102000C91AFFF796FCA7E7C046B8
:10500000F0B54E464546DE465746E0B50C00CFB0FB
:10501000E6490500160019F0E5FE002800D139E246
:105020002800E34919F0DEFE002800D184E12800C1
:10503000E04919F0D7FE002800D1B4E22800DE498B
:1050400019F0D0FE002800D1EAE22800DB4919F06F
:10505000C9FE002800D158E22800D94919F0C2FE43
:10506000002800D17DE32800D64919F0BBFE0028B6
:1050700000D1E3E32800D44919F0B4FE002800D1A0
:1050800028E32800D14919F0ADFE002801D100F035
:1050900022FC2800CE4919F0A5FE002801D100F01D
:1050A0006FFC2800CB4919F09DFE002801D100F0CB
:1050B000C9FC2800C84919F095FE002801D100F06C
:1050C000FCFC2800C54919F08DFE002801D100F034
:1050D000D8FD2800C24919F085FE002801D100F052
:1050E00029FE2800BF4919F07DFE002801D100F0FB
:1050F00050FE2800BC4919F075FE002801D100F0CF
:105100009FFE2800B94919F06DFE002801D100F07A
:10511000C2FE2800B64919F065FE002801D100F052
:10512000C7FE2800B34919F05DFE002801D100F048
:10513000DFFE2800B04919F055FE002801D100F02B
:10514000C5FE2800AD4919F04DFE002801D100F040
:1051500003FF2800AA4919F045FE002801D100F0FC
:10516000F6FE2800A74919F03DFE002801D100F005
:10517000E1FE2800A44919F035FE002801D100F015
:10518000CCFE2800A14919F02DFE002801D100F025
:10519000E8FF28009E4919F025FE002801D100F003
:1051A000DAFF28009B4919F01DFE002801D100F00C
:1051B000A3FF2800984919F015FE002801D100F03E
:1051C00096FF2800954919F00DFE002801D100F046
:1051D00089FF2800924919F005FE002801D100F04E
:1051E0007CFF28008F4919F0FDFD002801D100F057
:1051F0006FFF28008C4919F0F5FD002801D100F05F
:1052000062FF2800894919F0EDFD002801D100F066
:1052100055FF2800864919F0E5FD002801D100F06E
:1052200048FF2800834919F0DDFD002801D100F076
:105230003BFF2800804919F0D5FD002801D100F07E
:105240002EFF28007D4919F0CDFD002801D100F086
:1052500021FF28007A4919F0C5FD002801D100F08E
:1052600013FF2800774919F0BDFD002801D100F097
:1052700006FF2800744919F0B5FD002801D100F09F
:10528000F9FE2800714919F0ADFD002801D100F0A8
:10529000ECFE28006E4919F0A5FD002801D100F0B0
:1052A000DFFE28006B4919F09DFD002801D100F0B8
:1052B000D2FE2800684919F095FD002801D100F0C0
:1052C000C5FE2800654919F08DFD002801D100F0C8
:1052D000B8FE2800624919F085FD002801D100F0D0
:1052E000ABFE28005F4919F07DFD002801D100F0D8
:1052F00045FE28005C4919F075FD002801D100F039
:1053000038FE2800594919F06DFD002801D100F040
:10531000FFFD2800564919F065FD002800D0E6E0A1
:10532000544D554925962494902268460DF06AF80C
:105330000FCDFFF741FCDAE0616822688B1A242B5D
:1053400000D8DBE0282B03D92832914200D06260DC
:1053500071683368CA1A242A00D89EE1282A04D921
:105360001A002832914200D0726080210020226809
:10537000424C434DA446434E434F09061560186006
:105380005660596097609860D460404CD960146151
:105390001C6154613E4C5C61644694619861D761C4
:1053A000D9611662186255625962A0E0501302106A
:1053B00058130210601302106813021070130210C9
:1053C0007813021080130210881302109013021039
:1053D00098130210A0130210A8130210B0130210A9
:1053E000B8130210C0130210C8130210D013021019
:1053F000D8130210DC130210E0130210E4130210A1
:10540000E8130210EC130210F0130210F413021050
:10541000F8130210001402100814021010140210E5
:105420001814021020140210281402103014021054
:1054300038140210401402104814021050140210C4
:105440005814021060140210681402107014021034
:1054500078140210801402108814021090140210A4
:1054600098140210A0140210A8140210B014021014
:10547000B8140210E4150210F4150210CEE6F83D3F
:10548000B6C3873CB6C387BCCEE6F8BDF304353F50
:10549000F30435BF62682368D11A142900D8B8E034
:1054A000182903D918339A4200D0636072683368B0
:1054B000D11A142900D8A4E0182904D919001831E8
:1054C0008A4200D07160802000252268C249C34C06
:1054D000C34E000614601D6056605860916099606C
:1054E000D160C049D96016611D61546158614FB0E7
:1054F000F0BCBB46B246A946A046F0BD0A219B10AF
:105500002000C91AFFF710FA22E7676825687B1B9D
:105510009846342B00D8C8E0382B04D92B003833F8
:105520009F4200D06360736837689846DB1B9946DA
:10553000342B00D8ABE1382B04D93B0038339845E5
:1055400000D07360A84B00222B609A468023A749A5
:10555000A748A84CA84E1B063A60884668607B6046
:10556000AC60BA60EE60FB602961A4493A6189468B
:105570006961A3497B61A961A249B9618C46494629
:10558000E9619849F96141462962614639625146AB
:105590006E627B62AC62BA62E862FB6229633A6364
:1055A0006A637B63A3E7616822688B1A142B00D8B7
:1055B000D0E0182B03D91832914200D06260716894
:1055C0003368CA1A142A00D8BCE0182A04D91A0071
:1055D0001832914200D072608020226800248949EC
:1055E000894D8A4E000615601C60516058609660B7
:1055F0007C4E9960D160DE6015611961546158611B
:1056000075E706238910591A3000FFF78DF93368C2
:1056100059E7062389102000591AFFF785F945E755
:10562000616822688B1A242B00D8CEE0282B03D97E
:105630002832914200D0626071683368CA1A242A05
:1056400000D8BAE0282A04D91A002832914200D0A2
:1056500072606F4E2268B4466E4900201160884621
:10566000802164466C4D684F09061860556059608A
:1056700097609860D660694ED9601661614E1E6170
:105680005461584C5C61444697619E61D561D96113
:10569000146218625062596229E70A2192103000A0
:1056A000891AFFF741F933685FE60E229910531A01
:1056B0009946A368DB1B9B104B4500D2A8E24B46E2
:1056C0009B00994638001A0000214F440CF094FECC
:1056D000676028E7616822688B1A1C2B00D8A2E15A
:1056E000202B03D92032914200D062607168336868
:1056F000CA1A1C2A00D89DE1202A04D91A00203297
:10570000914200D0726080212268002409068846F8
:10571000434E4448444D454F10601C6055605960ED
:10572000966043499F603D4FD760D9601761414FF4
:105730001F615661344E5E6195619C61D061424645
:10574000DA61D4E6062192103000891AFFF7ECF8EE
:10575000336841E706219B102000C91AFFF7E4F8DF
:105760002DE726AD9022344928000CF04BFE6168ED
:1057700022688B1A442B00D8A6E0482B03D9483264
:10578000914200D0626072683768D31B442B00D806
:1057900092E0482B04D93B0048339A4200D0736012
:1057A0000022246837AB18681900A050986C043B9D
:1057B000B85004328D42F6D199E60A219210300099
:1057C000891AFFF7B1F8336843E70A219B102000DC
:1057D000C91AFFF7A9F82FE7F304353FF304B5BD65
:1057E000F304B53DF30435BF3046E2BBC2F22DBE33
:1057F0003046623C4255403D089EDCBD441AE53EC1
:10580000C57C773FF304B53EF30435BEB6C3873F8E
:10581000E1F5D63EB6C3073DB6C387BDF68E7E3FE3
:1058200055641EBEB6C3873D92A54BBEF304353EFC
:10583000B6C307BFB6C3073F94230210616822684E
:105840008B1A0C2B00D894E0102B03D91032914204
:1058500000D0626071683368CA1A0C2A00D880E0F0
:10586000102A04D91A001032914200D072602268C6
:10587000C849C9481160C94C1860C94850605C608B
:105880009060C8489860D160C74ADA602FE60E225F
:105890009910531A42469A46B3689B1A9B109A4530
:1058A00000D94DE153469C0022000021404644446B
:1058B0000CF0A2FD746045E612219B103000C91A5D
:1058C000FFF732F837686BE712219B102000C91AE6
:1058D000FFF72AF857E7616822688B1A2C2B00D84B
:1058E000E4E0302B03D93032914200D0626071681D
:1058F0003368CA1A2C2A00D8D0E0302A04D91A00FA
:105900003032914200D072602268A84900201160B4
:105910008A468021A64CA74DA74EA84F09061860BD
:10592000A4465560596096609860D760D96014614C
:10593000994C1C61A24CA0465461984C5C61444651
:105940009461984C9C616446D461974CDC61176209
:10595000186256625962956298625046D062D96266
:10596000C5E5042192103000891AFEF7DDFF336887
:105970007DE704219B102000C91AFEF7D5FF69E7D7
:10598000616822688B1A3C2B00D86BE1402B03D94D
:105990004032914200D0626071683368CA1A3C2A72
:1059A00000D866E1402A04D91A004032914200D062
:1059B000726022688348802110600020824C834DF1
:1059C000834E844F09061860A4465560596096605E
:1059D0009860D760D96014617F4C1861A04654610B
:1059E0007E4C5961A14694616B4C9C617C4CA246F3
:1059F000D4616A4CDC61544614626A4C1C624C46A9
:105A00005462694C5C624446946264469862D46213
:105A1000D96217631863566359639563986369483D
:105A2000D063D96363E508219B102000C91AFEF7F3
:105A30007BFF5BE6082192103000891AFEF774FFA5
:105A4000336860E626ADA022664928000CF0DAFC37
:105A500061682368CA1A4C2A00D864E1502A03D925
:105A60005033994200D0636072683768D31B4C2B67
:105A700000D850E1502B04D93B0050339A4200D05B
:105A800073600022246839AB18681900A050186DA3
:105A9000043BB85004328D42F6D128E50C21921017
:105AA0003000891AFEF740FF33682DE70C219B1068
:105AB0002000C91AFEF738FF19E761682368CA1A7F
:105AC000242A00D89AE1282A03D92833994200D001
:105AD000636071683368CA1A242A00D886E1282ACC
